:10000000F0FF0320C1050000630A0000650A00003C
:10001000690A00006B0A00006D0A00000000000081
:10002000000000000000000000000000610A000065
:10003000670A000000000000610A0000610A000079
:10004000610A0000610A0000610A0000610A000004
:10005000610A0000610A0000610A0000610A0000F4
:10006000610A0000610A0000610A00009D090000A9
:10007000610A0000610A0000610A0000610A0000D4
:10008000610A0000610A0000610A0000610A0000C4
:10009000610A0000610A0000610A0000610A0000B4
:1000A000610A0000610A0000610A0000610A0000A4
:1000B000610A0000610A0000610A0000610A000094
:1000C000610A0000610A0000610A0000610A000084
:1000D000610A0000610A0000610A0000610A000074
:1000E000610A0000610A000000000000000000003A
:1000F00000000000610A0000610A0000610A0000BF
:10010000610A0000610A0000610A0000610A000043
:10011000610A0000610A0000610A0000610A000033
:10012000610A0000610A0000610A0000610A000023
:10013000610A0000610A0000610A0000610A000013
:10014000610A0000610A0000610A0000610A000003
:10015000610A0000610A00000000000000000000C9
:10016000000000000000000000000000000000008F
:10017000000000000000000081020000610A000091
:10018000610A0000610A0000610A0000610A0000C3
:1001900000000000610A0000610A0000610A00001E
:1001A000610A0000610A0000610A0000610A0000A3
:1001B000610A0000610A0000610A0000610A000093
:1001C000610A0000610A0000610A0000610A000083
:1001D000610A0000610A0000610A0000610A000073
:1001E000610A0000610A0000610A0000610A000063
:1001F000610A0000610A0000610A0000610A000053
:10020000610A00000000000000000000610A000018
:10021000610A0000610A0000610A0000610A000032
:10022000610A0000610A0000610A0000610A000022
:10023000610A0000610A0000610A0000610A000012
:10024000610A0000610A0000610A0000610A000002
:10025000610A0000610A0000610A0000610A0000F2
:10026000F8B500BFF8BC08BC9E4670470D090000F9
:10027000F8B500BFF8BC08BC9E467047E90800000E
:100280002DE9F04784B04FF084431C6D14F0007FDB
:100290001CBF4FF000721A6514F0010F63D04FF0CD
:1002A000844301221A655A6D22F001025A65D3F87F
:1002B000A43013F07F0F56D04FF08443D3F8A450EE
:1002C000C5F305252B01854AD268D718D15811F0FE
:1002D000804FD15805EB8500814E56F8200014BFA1
:1002E00021F06041C1F38A410160D2587B6813F468
:1002F000001F03D112F0005F40F0E68005EB85039C
:10030000774A02EB83031B6900221A707E68754BE3
:100310000FCB0DF1100C0CE90F00C6F30346664439
:1003200016F810AC6E4E4FEA850808EB050906EB8F
:100330008909524607F10801D9F8040000F054FB7E
:10034000D9F8083083F800A0D9F80C300BB17A68DE
:100350001A804FF08443C3F8A850634B1B6813B155
:10036000614A5068984714F0100F67D04FF08443EB
:1003700010221A655A6D22F010025A65D3F8B43073
:1003800013F07F0F5AD04FF08443D3F8B450C5F325
:1003900005252B01514A1269D718D15811F0804F09
:1003A000D05805F1010101EB81014D4E56F8216055
:1003B00014BF20F06040C0F38A403060D2587B68A0
:1003C00013F4001F02D112F0005F74D105EB850316
:1003D000434A02EB83035B6A00221A707E68414B3A
:1003E0000FCB0DF1100C0CE90F00C6F30346664469
:1003F00016F8108C3A4E6B1C03EB830306EB830359
:10040000424607F10801586800F0EEFAAB005A19AD
:1004100006EB8202D26982F800802B4406EB830649
:10042000336A0BB17A681A804FF08443C3F8B8502E
:100430002D4B9B6813B12C4AD068984714F4007F69
:1004400020D04FF084434FF400721A655A6D22F4A5
:1004500000725A65D3F8D820D3F8E03013F0010FBA
:100460000AD012F0010F07D04FF08442D2F8E030EA
:1004700023F00103C2F8E0301B4B9B6913B11A4A09
:10048000D069984714F4006F12D04FF084424FF4B3
:1004900000631365D2F8C430C3F30423D2F8C42038
:1004A000C2F30442934203D20133DBB29A42FBD13E
:1004B00004B0BDE8F08705EB8503094A02EB83032E
:1004C0005B6A01221A7089E705EB8503044A02EB97
:1004D00083031B6901221A7018E700BF1000002077
:1004E00038000020300A0000600000202C4B002261
:1004F0001A7403F500632B4ADA621A46536813F044
:10050000200FFBD1284B01225A711A46D37813F0E1
:10051000010FFBD0254B264A1A621A46536813F086
:10052000040FFBD1214B234A5A621A46536813F039
:10053000080FFBD11D4B204A9A621A46536813F0EC
:10054000100FFBD1194B1B4A1A631A46536813F05C
:10055000400FFBD1154B4322C3F8A4201A46D2F812
:10056000A43013F0400FFAD0104B4422C3F8EC2013
:100570001A46D2F8EC3013F0400FFAD00B4B44225D
:10058000C3F8F0201A46D2F8F03013F0400FFAD03A
:10059000054B0A4A1A6144F2FF725A61704700BF64
:1005A000001400400401200000080040001C00402E
:1005B000060101000601020006013000FFFFFB00FA
:1005C00008B51B4B98471B4B9847EFF3108172B649
:1005D000194AD2F8883043F47003C2F88830BFF368
:1005E0004F8FBFF36F8F01B962B6144C2023636045
:1005F00000F072F8124B23F07F030F4A9360114B07
:100600009847A36823F00103A3602346DA6812F039
:10061000010FFBD1094B5A6842F004025A600122D3
:100620009A60094B9847094B984700F0EBF9FEE7B1
:100630006F0A00006F0A000000ED00E0006000415A
:10064000000000005D0800006F0A00006F0A000053
:1006500038B54FF0844301229A611A46936913F02A
:10066000010FFBD04FF084439A6942F002029A6175
:10067000164ADA612B22C3F8802001221A629A6995
:1006800022F4804222F0010242F480429A611A462A
:10069000936913F0010FFBD14FF0844300249C6554
:1006A0000122DA654FF000725A65094D2C606C60CA
:1006B000AC6028222146074800F0CAF9EC602C61A2
:1006C0006C61AC61EC612C626C6238BD00050200AB
:1006D00010000020380000201E4B1F4A9342F0B447
:1006E00038BF002103D203F8011B9342FBD11B4A00
:1006F000D2E9000150EA01034FF0000610D09468DF
:10070000034602F10C076CB921B1014403F8016BF7
:100710009942FBD13A46D2E9000150EA0103EED1F9
:10072000F0BC704759B101F10C030C38801A1A441F
:100730003B461C1813F8015B25709342F9D111F068
:10074000030318BF012303EB910107EB81073A462E
:10075000E1E700BF10000020100000200C0800009E
:100760004FF4005318684FF000531B78012B12D040
:10077000013018BF01204FF0005311221A7082225D
:100780005A7013229A708422DA7000221A710122A0
:100790005A719A7170474FF000535B78022BE7D182
:1007A0004FF000539B78032BE2D14FF00053DB78DE
:1007B000042BDDD10020DEE7134B05221A60022254
:1007C00083F84020012183F84210402283F843201F
:1007D00083F84B2083F84E2083F8532083F856107B
:1007E00083F8571083F83110882083F83B004FF0CE
:1007F0000040C3F8800083F8C42083F8D72083F832
:10080000DF1083F8BF207047008000418000002087
:100810001C0000000000000060000020200000001C
:100820000000000010000020280000000000000070
:100830003800002028000000000000009C0000207C
:100840000C00000000000000A800002004000000D0
:1008500000000000000000000000000070B50D4D19
:100860000D4C641BA4100026A64209D10B4D0C4C64
:10087000FFF7F6FC641BA4100026A64205D170BD4C
:1008800055F8043B98470136EEE755F8043B984786
:100890000136F2E76C0200006C0200006C020000FE
:1008A000700200000F4B01221A801A46136913F0E0
:1008B000010FFBD10B4B4FF401421A8000221A6248
:1008C0001A46136913F0200FFBD1064B00225A621F
:1008D0001A46136913F0400FFBD1024B83225A8151
:1008E000704700BF0024004010B5054C237833B991
:1008F000044B13B10448AFF300800123237010BDF3
:1009000080000020000000000000000008B5034B3C
:100910001BB103490348AFF3008008BD000000008D
:1009200084000020000000000D4AD36823F4E06337
:100930001B041B0C43F0BF6343F40033D360BFF3CD
:100940005F8F62B6074BE02283F80B234FF4006100
:10095000196083F84E234FF480429A60704700BFBD
:1009600000ED00E000E100E00B4B01221A601A46A6
:10097000136913F0010FFBD1074B4FF4C2621A60E9
:1009800001221A7302229A8333229A721A46136939
:10099000002BFCD1704700BF0038004008B5074A63
:1009A000908980B2064B58604CF2FF3191811B68F0
:1009B00013B1034A9168984708BD00BF0024004066
:1009C0009C00002008B500F03BF8FFF7F5FEFFF7AC
:1009D0008DFD00F02CF8FFF73BFEFFF763FFFFF7FC
:1009E000C3FFFFF7A1FF08BD0A44914200F1FF33A6
:1009F00000D1704710B511F8014B03F8014F914237
:100A0000F9D110BD08B50020FFF7DCFFFFF7A8FE05
:100A100000B9FEE700F001F8FBE74FF400531B6854
:100A200083F3088842F204031B6818477047704735
:100A30000001020304050607080C101418203040BA
:100A4000024B4FF482721A80704700BF0040004191
:100A500002440346934200D1704703F8011BF9E7B3
:100A6000FEE7FEE7FEE7FEE7FEE7FEE7FEE770478C
:10200000F0FF0320F5300000433C0000453C000099
:10201000493C00004B3C00004D3C0000000000002B
:10202000000000000000000000000000413C000033
:10203000473C000000000000413C0000413C000023
:10204000413C0000413C0000413C0000413C00009C
:10205000413C0000413C0000413C0000413C00008C
:10206000413C0000413C0000413C0000013A0000BE
:10207000413C0000413C0000413C0000413C00006C
:10208000413C0000413C0000413C0000413C00005C
:10209000413C0000413C0000413C0000413C00004C
:1020A000413C0000413C0000413C0000413C00003C
:1020B000413C0000413C0000413C0000413C00002C
:1020C000413C0000413C0000413C0000413C00001C
:1020D000413C0000413C0000413C0000413C00000C
:1020E000413C0000413C00000000000000000000F6
:1020F00000000000413C0000413C0000413C000069
:10210000413C0000413C0000413C0000413C0000DB
:10211000413C0000413C0000413C0000413C0000CB
:10212000413C0000413C0000413C0000413C0000BB
:10213000413C0000413C0000413C0000413C0000AB
:10214000413C0000413C0000413C0000413C00009B
:10215000413C0000413C0000000000000000000085
:10216000000000000000000000000000000000006F
:102170000000000000000000892A0000413C00002F
:10218000413C0000413C0000413C0000413C00005B
:1021900000000000413C0000413C0000413C0000C8
:1021A000413C0000413C0000413C0000413C00003B
:1021B000413C0000413C0000413C0000413C00002B
:1021C000413C0000413C0000413C0000413C00001B
:1021D000413C0000413C0000413C0000413C00000B
:1021E000413C0000413C0000413C0000413C0000FB
:1021F0002D390000413C0000413C0000413C000002
:10220000413C00000000000000000000413C0000D4
:10221000413C0000413C0000413C0000413C0000CA
:10222000413C0000413C0000413C0000413C0000BA
:10223000413C0000413C0000413C0000413C0000AA
:10224000413C0000413C0000413C0000413C00009A
:10225000413C0000413C0000413C0000413C00008A
:10226000F8B500BFF8BC08BC9E46704715370000A3
:10227000F8B500BFF8BC08BC9E467047F1360000B8
:1022800010B582B09B4B1B6AC3F3C0239A4A1376E6
:1022900092F82630DBB2102B00F20282DFE813F056
:1022A00011001C00340060007C009400AE00D600D9
:1022B000EF000A0130014A01660186019F01BA015F
:1022C000DA018D4A92F826300133DBB282F82630EB
:1022D0008A4B00221A60A4E0884A13680133136015
:1022E00041F60A62934200F2D081834B1B7E002BA1
:1022F00000F08F80804AE623D36192F826300133C4
:10230000DBB282F8263084E07C4A13680133136024
:1023100041F60A62934200F2B881774BDA69013ADA
:10232000DA61DB69002B74D1734B1B7E23B9724BCE
:10233000012283F826206CE0142300934FF4FA6303
:1023400096220321012001F019F86B4A92F82630F9
:102350000133DBB282F82630684B00221A6060E05D
:10236000664A13680133136040F20262934200F23E
:102370008C81604B1B6A13F4006F4AD15F4B0022C3
:102380001A605D4A53680133D36192F826300133F5
:10239000DBB282F826303CE0584A13680133136000
:1023A000554BDA69013ADA61DB69002B31D1524BC6
:1023B0009B78002B00F05D814F4A92F82630013364
:1023C000DBB282F8263024E04C4A136801331360F4
:1023D00040F20262934200F25881474A127EC2B133
:1023E000454AD362454B002119604C23D36192F8D2
:1023F00026300133DBB282F826300AE03F4A136808
:10240000013313603C4AD2696AB13B4AD369013B4C
:10241000D36101F0FBFB384B5B8C0446984200F221
:10242000418102B010BD344A127E002AF1D1324AF5
:102430001364324B0021196093680133D36192F821
:1024400026300133DBB282F82630E2E72B4A1368EC
:1024500001331360284BDA69013ADA61DB69002B3A
:10246000D7D1254B9B78DBB2012B00F00281224AA9
:1024700092F826300133DBB282F82630C9E71F4AD2
:1024800013680133136040F20262934200F2FD8050
:10249000194A127E002ABCD0174A1363174B002139
:1024A00019604C23D36192F826300133DBB282F8F5
:1024B0002630AEE7114A1368013313600E4AD26921
:1024C00022B10D4AD369013BD361A2E70A4A127EC9
:1024D000002A9ED1084A5364084B00211960D36832
:1024E0000133D36192F826300133DBB282F8263013
:1024F0008FE700BF0080004190090020F80A00200B
:102500006E4A1368013313606D4BDA69013ADA6180
:10251000DB69002B7FF47DAF694B9B78DBB2022B2C
:1025200000F0A780664A92F826300133DBB282F8C9
:1025300026306EE7614A13680133136040F202628D
:10254000934200F2A2805E4A127E002A3FF461AFFD
:102550005B4A5363594B002119604C23D36192F8B5
:1025600026300133DBB282F8263052E7534A136833
:1025700001331360524AD26922B1514AD369013BF7
:10258000D36146E74E4A127E002A7FF442AF4C4A9E
:1025900093644A4B0021196013690133D36192F8A7
:1025A00026300133DBB282F8263032E7434A136823
:1025B00001331360424BDA69013ADA61DB69002BBF
:1025C0007FF427AF3E4B9B78DBB2032B51D03C4AC4
:1025D00092F826300133DBB282F8263019E7374A09
:1025E00013680133136040F2026293424DD8344ABB
:1025F000127E002A3FF40DAF314A93632F4B002126
:1026000019604C23D36192F826300133DBB282F893
:102610002630FEE6294A136801331360284AD2693E
:1026200022B1274AD369013BD361F2E6244A127EE4
:10263000002A7FF4EEAE224AD364204B00211960B9
:1026400053690133D36192F826300133DBB282F84B
:102650002630DEE6194A136801331360184BDA6935
:10266000013ADA61DB69B3FA83F35B09002B3FF4CB
:10267000D0AE0121002001F06FF901F05DFA104B9E
:1026800000221A7001225A70CBE60121084601F09F
:1026900063F901F051FA0A4B00221A705A70C0E631
:1026A0000023E3E701F048FA054B988C201A80B22A
:1026B00001F04EFA01F034FAB3E600BFF80A002048
:1026C0009009002070B582B0AF4B1B78A3B9AF4B17
:1026D0001B78002B40F06C81AD4B1B78002B40F039
:1026E0006E81AC4B1B78002B00F06781A94B002258
:1026F0001A7001F097F860E1A34B00221A70A64B04
:102700001B7B082B05D1A44C221D04F10C050021D4
:1027100003E001F06BF850E1194612F8010B80EA72
:102720000103DBB2AA42F7D188421ED19A4B1B7932
:102730009A4A12789A421BD0984A1370964B03F12A
:102740001402191D03C982E803005B79013B092BC0
:1027500031D8DFE813F02A00480052005B00740013
:102760008D00A500BD001000D50001F03FF824E168
:1027700001F03CF821E18A4B93F8703973B1894A32
:102780000023894EA2F24C6552F8040F316841F8DB
:102790002300013395F870198B42F5DB824B1B68DF
:1027A0004FF05A32C3F8FC2305E07D4BD3F80120EB
:1027B000794BC3F817207D4B04F11B00002113F85F
:1027C000012B51408342FAD1734AD176744B187869
:1027D000002300931432082100F5A07000F0E8FBFC
:1027E00001F004F8E9E06E4BD3F805106A4AC2F82C
:1027F000171000225A719A71DDE7674A684B53F847
:10280000091FC2F816101B799376D4E7624B9B79A7
:10281000634A92F82E239A4209D90233604A02EBA6
:102820008303D3F806205C4BC3F81720C3E75A4B49
:1028300000225A7504229A750122DA75BBE7564BBD
:102840009B79574A92F84F269A4209D9CA33544A7B
:1028500002EB8303D3F807204F4BC3F81720AAE7F6
:102860004D4B00225A7505229A750122DA75A2E7AE
:10287000494B9B794A4A92F870299A4208D903F544
:10288000CA73474A52F82320434BC3F8172092E7F4
:10289000414B00225A7506229A750122DA758AE7A1
:1028A0003D4B9B793E4A92F84F269A4208D93A4AC4
:1028B000D2F817103A4A02EB8303C3F82F137AE7D2
:1028C000354B00225A7507229A750122DA7572E794
:1028D000314B9B79324A92F870299A4208D903F514
:1028E000CA732D4AD2F817102D4A42F8231062E716
:1028F000294B00225A7508229A750122DA755AE787
:10290000274BD3F874692EB3234B987928B1244B05
:102910009B7A012B2ED0224B5872214D0423AB728F
:102920000023EB722B731C498B7A00934B7A0A7A43
:10293000C979B047AB7A032B03D90322AA720522C7
:102940006A73154A164B53F8091FC2F816101B7903
:10295000937630E7104A91795972032199720021D8
:10296000D972197304215973D3F80930C2F816309B
:10297000917620E7084B0322DA7500221A765A7600
:1029800001229A7617E700BF050B0020040B0020F8
:10299000030B0020020B0020A00A0020000B0020E7
:1029A000100000205C060020F40A0020B40A002079
:1029B0002F4B00221A7000F019FF02B070BD2D4B92
:1029C00000221A702C4B1B7B082B18D12A4B03F1C9
:1029D0001402191D03C982E803001B79012B11D0D1
:1029E000022B2FD0254B187800230093244A08216E
:1029F00000F5807000F0DCFA00F014FFDDE700F075
:102A000011FFDAE71D4B93F87C3973B91A4B00229A
:102A10005A759A75DA751A76174B184A517859769D
:102A200091789976D278DA76DCE7134B02225A75E0
:102A3000124AD2F87829117999755179D975927914
:102A40001A76E9E70D4B93F87C393BB90A4BFF2224
:102A50001A7502225A7500229A75C3E7074B0122A4
:102A600083F87D290021074801F086F8BAE700BF06
:102A7000040B0020030B0020800A0020100000201F
:102A8000940A0020953400002DE9F04784B04FF0FF
:102A900084431C6D14F0007F1CBF4FF000721A6558
:102AA00014F0010F62D04FF0844301221A655A6D71
:102AB00022F001025A65D3F8A43013F07F0F55D0ED
:102AC0004FF08443D3F8A450C5F305252B014A4A9F
:102AD000D268D718D15811F0804FD15805EB850036
:102AE000464E56F8200014BF21F06041C1F38A41E0
:102AF0000160D2587B6813F4001F02D112F0005F0E
:102B000071D105EB85033D4A02EB83031B6900226B
:102B10001A707E683A4B0FCB0DF1100C0CE90F00C8
:102B2000C6F30346664416F810AC344E4FEA8508E7
:102B300008EB050906EB8909524607F10801D9F8A7
:102B4000040000F0A3FFD9F8083083F800A0D9F8FA
:102B50000C300BB17A681A804FF08443C3F8A85048
:102B6000284B1B6813B1274A5068984714F4007F1C
:102B700020D04FF084434FF400721A655A6D22F44E
:102B800000725A65D3F8D820D3F8E03013F0010F63
:102B90000AD012F0010F07D04FF08442D2F8E03093
:102BA00023F00103C2F8E030164B9B6913B1154ABC
:102BB000D069984714F4006F12D04FF084424FF45C
:102BC00000631365D2F8C430C3F30423D2F8C420E1
:102BD000C2F30442934203D20133DBB29A42FBD1E7
:102BE00004B0BDE8F08705EB8503044A02EB8303DC
:102BF0001B6901221A708CE7300A0020580A002055
:102C0000883B0000C00A0020494B00221A7403F5DB
:102C10000063484ADA621A46536813F0200FFBD16A
:102C2000454B464A9A621A46536813F0100FFBD17F
:102C3000414B434A1A631A46536813F0400FFBD1C5
:102C40003D4B4222C3F884201A46D2F8843013F058
:102C5000400FFAD03B4B00229A6377225A631A4600
:102C6000D36B13F0040FFBD1364B022283F83020D4
:102C70001A46D36B13F0020FFBD1324A136C03F0E8
:102C80000303032BFAD1304B01225A711A46D37831
:102C900013F0010FFBD0284B2C4A1A621A465368D6
:102CA00013F0040FFBD1244B294A5A621A46536889
:102CB00013F0080FFBD1204B4222C3F8A4201A4680
:102CC000D2F8A43013F0400FFAD01B4B4422C3F8C3
:102CD000EC201A46D2F8EC3013F0400FFAD0164B25
:102CE0004422C3F8F0201A46D2F8F03013F0400F17
:102CF000FAD0114B4122C3F820211A46D2F82031D4
:102D000013F0400FFAD00C4B4122C3F824211A468D
:102D1000D2F8243113F0400FFAD00B4B0D4A1A6150
:102D20004CF2FF725A614FF4C0721A62704700BFD2
:102D30000014004004012000001C00400601300087
:102D400006010200001000400008004007010100D9
:102D500007010200FFFFFB00E40900201C00000047
:102D600000000000000A0020300000000000000009
:102D7000800A00202000000000000000A00A0020BF
:102D8000200000000000000010000020800900006A
:102D900000000000000B0020010000000000000007
:102DA000010B00200100000000000000020B0020C9
:102DB0000100000000000000030B002001000000E3
:102DC00000000000040B00200100000000000000D3
:102DD000050B00200100000000000000F40A0020A4
:102DE000040000000100000000000044C00A0020B0
:102DF0002000000000000000300A00202800000031
:102E000000000000580A0020280000000000000018
:102E1000060B00200100000000000000E00A002076
:102E20000C00000000000000EC0A00200800000078
:102E300000000000070B002001000000000000005F
:102E4000900900205400000000000000080B002042
:102E50000100000000000000F80A0020040000004B
:102E600000000000090B002001000000000000002D
:102E7000FC0A002004000000000000000000000028
:102E800000000000222222222DE9F84F8B469246B4
:102E900098469DF828709DF82C609DF830503E4B68
:102EA000D3F800903D4C20703D4800F0D7F8677093
:102EB000A670E5700223A3720023E3722373637389
:102EC0006371A371E371237284F82EB384F84FA663
:102ED000B8F1000F03D009F00F03012B13D02F4BD3
:102EE000002283F870292D4A0D9BC2F874394FF0E7
:102EF0000053C2F878391B78112B2AD0274B0022B7
:102F000083F87C293DE0C9F30219B9F1010FE6D13C
:102F100084F8708900F048FE0028FBD1214B196825
:102F2000D1F8FC33B3F15A3F08D01F4B03EB8808AC
:102F3000002243F8042B4345FBD1D4E70B461B4A40
:102F400001EB880853F8041B42F8041F4345F9D1EC
:102F5000C9E74FF000535B78822BCFD14FF000537D
:102F60009B78132BCAD14FF00053DB78842BC5D14B
:102F70000A4B012283F87C294FF00053DF711E7247
:102F80005D72064B002283F87D2900F02FFC00F0D3
:102F900049FCBDE8F88F00BF04408000100000200D
:102FA000000A0020F40A0020600600205C060020D1
:102FB000F8B59DF818C0BCF1010F01D90020F8BD8B
:102FC0004FF08443D3F8C43013F4001F3FD14FF0C7
:102FD0008443D3F8C440C4F3044426011D4B9F69C5
:102FE000BD19B0F5006F26BF20F0604040F0804072
:102FF0008004B8510B46082928BF082318046860CC
:103000001CF0FD0F1ED111461A4605F1080000F014
:103010003DFD114A13780133DBB213706A6842EA4E
:10302000036343F400036B60012000FA04F44FF0E3
:103030008443C3F8E040C3F8D0405A6D42F40072B4
:103040005A65BCE7BB5943F00053BB51E1E7002090
:10305000B5E700BF300A0020060B002038B5044653
:103060003022002100F0B0FD4FF0844301229A612C
:103070001A46936913F0010FFBD04FF084439A690D
:1030800042F002029A611949CC60A2B242F00042B9
:1030900042F48032C3F8A02004F110028A6192B297
:1030A00042F08072C3F8C02004F12002CA6192B2DB
:1030B00042F48032C3F8F02004F128020A620C4D79
:1030C00003CDA062E16292B242F40032C3F88420E0
:1030D0009A6922F4804222F0010242F480429A610D
:1030E0001A46936913F0010FFBD138BD300A002056
:1030F000303C000008B51B4B98471B4B9847EFF33B
:10310000108172B6194AD2F8883043F47003C2F8BD
:103110008830BFF34F8FBFF36F8F01B962B6144C85
:103120002023636000F072F8124B23F07F030F4AF4
:103130009360114B9847A36823F00103A3602346D3
:10314000DA6812F0010FFBD1094B5A6842F0040211
:103150005A6001229A60094B9847094B984700F042
:1031600099F8FEE74F3C00004F3C000000ED00E006
:103170000060004100200000653600004F3C000068
:103180004F3C000038B54FF0844301229A611A4643
:10319000936913F0010FFBD04FF084439A6942F01A
:1031A00002029A61164ADA612B22C3F880200122BA
:1031B0001A629A6922F4804222F0010242F48042AB
:1031C0009A611A46936913F0010FFBD14FF08443C3
:1031D00000249C650122DA654FF000725A65094DA2
:1031E0002C606C60AC6028222146074800F0ECFCA3
:1031F000EC602C616C61AC61EC612C626C6238BD7E
:1032000000050200300A0020580A00201E4B1F4A09
:103210009342F0B438BF002103D203F8011B93425C
:10322000FBD11B4AD2E9000150EA01034FF000062E
:1032300010D09468034602F10C076CB921B1014427
:1032400003F8016B9942FBD13A46D2E9000150EAFA
:103250000103EED1F0BC704759B101F10C030C38F9
:10326000801A1A443B461C1813F8015B25709342E0
:10327000F9D111F0030318BF012303EB910107EB10
:1032800081073A46E1E700BF10000020100000204F
:10329000582D000008B5002000F030FB002119482F
:1032A00000F0AEFC00F030FC00F0BEFB00F084FC4F
:1032B00000F090F900F0CCFB134C144D00F0BCFC76
:1032C000237813F0020F0FD1237813F0040F11D1DC
:1032D000237813F0010FF1D023F0010323704FF096
:1032E0000043C5F89C30E9E723F00203237000F0A7
:1032F00095F9E9E723F00403237000F0A9FC00F03E
:1033000091FCE5E795380000090B002000800041A2
:10331000174B184A1A60042083F8440083F84500CC
:10332000012283F84620062183F84B1083F84D10C4
:10333000402183F84E1083F8531083F8562083F809
:10334000572083F85B0083F83300882083F83B0024
:103350000948C3F8800083F8C41083F8C82083F8B4
:10336000C92083F8D710112283F8B420704700BF1A
:1033700000800041FC170008000CC38010B51C46FB
:10338000144B5A841C84BDF808209A84012283F8C7
:103390002720D0B9104B4FF480725A61084600F0D4
:1033A0005DFA032000F0A2F800F0C6FB204600F012
:1033B000CFFB00F0B5FB084B10229A6120229A61E6
:1033C0004FF48062C3F8982010BD034B4FF4807215
:1033D0009A61E3E79009002000800041154B01222B
:1033E0001A801A46136B13F0010FFBD14FF08013B4
:1033F0001B681A0902F07002D90001F4E061C3F3FE
:1034000082030A431A430B4BA3F848204FF4E062AF
:103410001A800322DA721A7241F602029A8012228C
:10342000DA80072283F82E201A46136B002BFCD17A
:10343000704700BF001C0043154B01221A801A463A
:10344000136B13F0010FFBD14FF080131B689A0C24
:1034500002F07002D90A01F4E061C3F302430A43A7
:103460001A430B4BA3F848204FF4E0621A80032262
:10347000DA721A7241F601029A801222DA80072269
:1034800083F82E201A46136B002BFCD1704700BF27
:1034900000200043124B93F87D3903B97047104B5D
:1034A000002283F87D29D3F8782901211170D3F8FF
:1034B000782902215170D3F8782903219170D3F82B
:1034C00078390422DA70BFF34F8F0649CA6802F4D4
:1034D000E062054B1343CB60BFF34F8F00BFFDE7A6
:1034E0001000002000ED00E00400FA05032824D8B5
:1034F000DFE800F00206101A104B80229A61704734
:103500000E4B4FF400729A614FF480629A618022F0
:103510005A617047094B4FF400729A614FF4806210
:103520005A6180225A617047044B4FF400725A610D
:103530004FF480629A6180225A6170470080004196
:10354000F0B59DF81440ECB94FF0844CDCF8A45071
:10355000C5F305250C4CAE007719BF0004EB070E30
:10356000E051CEF80420CEF80810CEF80C30069BBF
:10357000CEF81030DCF8543043F00103CCF854306E
:10358000012000E00020F0BD580A00200F4AD36857
:1035900023F4E0631B041B0C43F0BF6343F40033CC
:1035A000D360BFF35F8F62B6094BE02283F80B2331
:1035B0004FF40061196083F84E234FF48041996005
:1035C00083F86C234FF48052DA60704700ED00E01E
:1035D00000E100E010B50E4B00241C705C7083F815
:1035E000264083F8274007225A609C60DC601C61FB
:1035F0005C612046FFF77AFF064B10229A61202279
:103600009A6100F099FA2146034800F005FB10BDCD
:1036100090090020008000418122000008B50F4B76
:103620001B6A13F4006F0D4B4FF4803214BFC3F8C4
:103630009820C3F89420094B1B6A094A1278C3F3F7
:1036400040339A4206D0054B1B6AC3F34033044A09
:10365000137003B908BD00F095F9FBE70080004145
:10366000070B002070B50D4D0D4C641BA4100026F7
:10367000A64209D10B4D0C4CFEF7F2FD641BA410C1
:103680000026A64205D170BD55F8043B9847013687
:10369000EEE755F8043B98470136F2E76C2200004C
:1036A0006C2200006C220000702200000F4B0122EF
:1036B0001A801A46136913F0010FFBD10B4B4FF41C
:1036C00001421A8000221A621A46136913F0200F71
:1036D000FBD1064B00225A621A46136913F0400FC1
:1036E000FBD1024B83225A81704700BF0024004067
:1036F00010B5054C237833B9044B13B10448AFF32C
:1037000000800123237010BDE409002000000000A8
:103710000000000008B5034B1BB103490348AFF399
:10372000008008BD00000000E80900200000000043
:103730004FF08443586C20F4605020F0180040048F
:10374000400C9B6913F0010F11D04FF08442936934
:1037500043F002039361936923F4804323F0010350
:1037600043F480439361936913F0010FFBD17047D9
:1037700010B582B00D4B1A789AB902F0FF040428F4
:1037800010D801241C709870002083F8260058700F
:103790001423009340F2DC5396220321FFF7EEFD41
:1037A00000E00024204602B010BD00BF90090020B8
:1037B0000C4B01221A601A46136913F0010FFBD15A
:1037C000084B10221A6001221A739A8333219972CE
:1037D0000549002008605A721A461369002BFCD173
:1037E000704700BF003C0040EC0A002000B583B0E9
:1037F00000221146084800F03BF90848084B0193A5
:103800000023009300F10E03021D00F10C01FFF7ED
:1038100097FE03B05DF804FBB1390000A00A002058
:10382000010B002000B583B001220021084800F000
:103830001FF90848084B01930123009300F10E0380
:10384000021D00F10C01FFF77BFE03B05DF804FBE5
:10385000D9390000800A0020010B002028B90C4B48
:1038600004225A6108225A617047012809D00228AF
:10387000074B4FF004020CBF5A619A6108229A610B
:103880007047034B04229A6108225A61704700BFB7
:103890000080004110F0010F04D00B4A137843F070
:1038A0000203137010F0020F04D0074A137843F09C
:1038B0000403137010F0800F04D0034A137843F010
:1038C00001031370704700BF090B00200A4B01224F
:1038D0001A601A46136913F0010FFBD1064B40F230
:1038E00014721A6001221A731A7733229A721A46D6
:1038F0001369002BFCD170470038004008B500F078
:103900004BF9FFF705FDFFF77FF900F06CF9FFF7C2
:1039100065FDFFF791FDFFF735FCFFF749FFFFF766
:10392000C5FEFFF7D3FFFFF731FE08BD08B5084B12
:103930005B7A63B1064A937A3321917203F0FF00F8
:103940002BB1044B1B6813B1024A5168984708BD5C
:10395000003C0040EC0A002010B504460846FFF782
:10396000C5FD064B83F82840002283F82720044B2E
:103970004FF48062C3F8942010BD00BF900900206E
:103980000080004108B5094B1878FFF7F1FE38B107
:10399000064B1B780133DBB2042B02D8034A1370A9
:1039A00008BD024B00221A70FAE700BF080B002086
:1039B00008B5FFF7BDFE10F0070005D0072803D0BB
:1039C000034B01221A7002E0024B01221A7008BD5B
:1039D000040B0020050B002008B5FFF7A9FE10F02E
:1039E000070005D0072803D0034B01221A7002E01C
:1039F000024B01221A7008BD020B0020030B0020AD
:103A000008B5074A908980B2064B58604CF2FF31E6
:103A100091811B6813B1034A9168984708BD00BFA4
:103A200000240040E00A002000B585B0074B039356
:103A3000012302930021019100930B460A461220B4
:103A4000FFF722FA05B05DF804FB00BFD93B000088
:103A500008B5064B4FF000629A6100F025F800F0BF
:103A60003BF800F02DF800F043F808BD008000415D
:103A700010B428B1044B43F8320003EBC203596081
:103A80005DF8044B704700BFC00A00200A44914211
:103A900000F1FF3300D1704710B511F8014B03F866
:103AA000014F9142F9D110BD044A138843F002033B
:103AB0001380136B002BFCD1704700BF001C004328
:103AC000044A137D43F002031375136B13F4006F64
:103AD000FBD17047001C0043044A138843F00203E3
:103AE0001380136B002BFCD1704700BF00200043F4
:103AF000044A137D43F002031375136B13F4006F34
:103B0000FBD1704700200043044A138843F00203AE
:103B10001380136913F0020FFBD17047002400409B
:103B2000044A136843F002031360136913F0020F91
:103B3000FBD17047003C0040044A136823F00203A5
:103B40001360136913F0020FFBD17047003C004073
:103B5000044BDB7A13F0100F03BF024B18860120D1
:103B600000207047003C0040024B03229A725873B9
:103B7000704700BF1000002010B1024B9861D9615E
:103B8000704700BFC00A00200001020304050607B9
:103B9000080C101418203040024B40F204521A80D6
:103BA000704700BF00400041024BD86AC0F380005C
:103BB000704700BF00400041024B4FF480525A61F1
:103BC000704700BF0080004102440346934200D189
:103BD000704703F8011BF9E700B9704708B50420E6
:103BE000FFF7C2FF08BD7047014BB3F840007047B4
:103BF000001C0043014BB3F8400070470020004315
:103C0000014B186099607047E00A0020014B988BC7
:103C1000704700BF003C0040014B1860596070477E
:103C2000EC0A002008B5FFF7DFFFFFF7E3FF08BD50
:103C30000402040A0401041108B5FEF743FD08BD9F
:103C4000FEE7FEE7FEE7FEE7FEE7FEE7FEE770477A
:023C50007047BB
:0200000400807A
:0C4000003912003C9100A82AFFFFFFFFCE
:00000001FF
