:020000040000fa
:10000000f0ff0320690b0000af110000b1110000e8
:10001000b5110000b7110000b91100000000000088
:10002000000000000000000000000000ad11000012
:10003000b311000000000000ad110000ad11000080
:10004000ad110000ad110000ad110000ad110000b8
:10005000ad110000ad110000ad110000ad110000a8
:10006000ad110000ad110000ad11000085100000c1
:10007000ad110000ad110000ad110000ad11000088
:10008000ad110000ad110000ad110000ad11000078
:10009000ad110000ad110000ad110000ad11000068
:1000a000ad110000ad110000ad110000ad11000058
:1000b000ad110000ad110000ad110000ad11000048
:1000c000ad110000ad110000ad110000ad11000038
:1000d000ad110000ad110000ad110000ad11000028
:1000e000ad110000ad110000000000000000000094
:1000f00000000000ad110000ad110000ad110000c6
:10010000ad110000ad110000ad110000ad110000f7
:10011000ad110000ad110000ad110000ad110000e7
:10012000ad110000ad110000ad110000ad110000d7
:10013000ad110000ad110000ad110000ad110000c7
:10014000ad110000ad110000ad110000ad110000b7
:10015000ad110000ad110000000000000000000023
:10016000000000000000000000000000000000008f
:10017000000000000000000039050000ad11000083
:10018000ad110000ad110000ad110000ad11000077
:1001900000000000ad110000ad110000ad11000025
:1001a000ad110000ad110000ad110000ad11000057
:1001b000ad110000ad110000ad110000ad11000047
:1001c000ad110000ad110000ad110000ad11000037
:1001d000ad110000ad110000ad110000ad11000027
:1001e000ad110000ad110000ad110000ad11000017
:1001f000ad110000ad110000ad110000ad11000007
:10020000ad1100000000000000000000ad11000072
:10021000ad110000ad110000ad110000ad110000e6
:10022000ad110000ad110000ad110000ad110000d6
:10023000ad110000ad110000ad110000ad110000c6
:10024000ad110000ad110000ad110000ad110000b6
:10025000ad110000ad110000ad110000ad110000a6
:020000040000fa
:10026000f8b500bff8bc08bc9e467047210f0000df
:10027000f8b500bff8bc08bc9e467047fd0e0000f4
:020000040000fa
:10028000f0b583b0a54b1b78002b00f03b81a34b4e
:1002900000221a70a24b1b7b082b05d1a04c221dfb
:1002a00004f10c05002103e000f088fe2de1194661
:1002b00012f8010b80ea0103dbb2aa42f7d18842af
:1002c00019d1974b1b79974a12789a4216d0954ac2
:1002d0001370934b03f11402191d03c982e8030044
:1002e0005b79013b092b12d8dfe803f00b29333c83
:1002f000546c839ab1ca00f061fe06e100f05efe24
:1003000003e1894bd3f80120854bc3f81720874bb5
:1003100004f11b00002113f8012b51408342fad154
:100320007f4ad176804b187800230093143208213d
:1003300000f5007000f078fb00f040fee5e07a4b3d
:10034000d3f80510764ac2f8171000225a719a7134
:10035000dde7734a744b53f8091fc2f816101b7976
:100360009376d4e76e4b9b796f4a927e9a4209d975
:1003700002336d4a02eb8303d3f80620684bc3f8bf
:100380001720c4e7664b00225a7504229a75012291
:10039000da75bce7624b9b79634ad27f9a4209d9ee
:1003a0000633614a02eb8303d3f803205c4bc3f8a6
:1003b0001720ace75a4b00225a7505229a75012284
:1003c000da75a4e7564b9b79574a92f850209a4227
:1003d00007d90833544a52f82320514bc3f8172049
:1003e00095e74f4b00225a7506229a750122da755d
:1003f0008de74b4b9b794c4ad27f9a4208d9484aa9
:10040000d2f81710484a02eb8303c3f81b107ee7ab
:10041000434b00225a7507229a750122da7576e756
:100420003f4b9b79404a92f850209a4207d90833b3
:100430003b4ad2f817103c4a42f8231067e7384b82
:1004400000225a7508229a750122da755fe7364d47
:1004500005f11c0305f14c07354ec5f1ff2505f5e7
:100460007f05e435ea18316853f8040f8850bb4221
:10047000f8d12f4b1b684ff05a32c3f8fc2346e7e4
:10048000294b5e6d2eb3264b987928b1264b9b7a6b
:10049000012b2ed0244b5872234d0423ab72002322
:1004a000eb722b731e498b7a00934b7a0a7ac979c7
:1004b000b047ab7a032b03d90322aa7205226a73d1
:1004c000174a194b53f8091fc2f816101b79937677
:1004d0001de7134a91795972032199720021d9724b
:1004e000197304215973d3f80930c2f81630917684
:1004f0000de70b4b0322da7500221a765a76012299
:100500009a7604e70b4b1b780bb903b0f0bd094b8f
:1005100000221a7000f052fdf7e700bf47010020eb
:10052000dc0000204401002000000020f00000203a
:080530005800002046010020e4
:020000040000fa
:100538002de9f04784b04ff084431c6d14f0007f20
:100548001cbf4ff000721a6514f0010f62d04ff013
:10055800844301221a655a6d22f001025a65d3f8c4
:10056800a43013f07f0f55d04ff08443d3f8a45034
:10057800c5f305252b014a4ad268d718d15811f07e
:10058800804fd15805eb8500464e56f8200014bf21
:1005980021f06041c1f38a410160d2587b6813f4ad
:1005a800001f02d112f0005f71d105eb85033d4aaf
:1005b80002eb83031b6900221a707e683a4b0fcb4b
:1005c8000df1100c0ce90f00c6f30346664416f84b
:1005d80010ac344e4fea850808eb050906eb89098b
:1005e800524607f10801d9f8040000f07bfdd9f85c
:1005f800083083f800a0d9f80c300bb17a681a805b
:100608004ff08443c3f8a850284b1b6813b1274afe
:100618005068984714f4007f20d04ff084434ff47b
:1006280000721a655a6d22f400725a65d3f8d82000
:10063800d3f8e03013f0010f0ad012f0010f07d001
:100648004ff08442d2f8e03023f00103c2f8e030e2
:10065800164b9b6913b1154ad069984714f4006f7b
:1006680012d04ff084424ff400631365d2f8c430bf
:10067800c3f30423d2f8c420c2f30442934203d242
:100688000133dbb29a42fbd104b0bde8f08705eb39
:100698008503044a02eb83031b6901221a708ce765
:1006a8008c000020b400002048110000fc0000204d
:020000040000fa
:1006b800424b42f20e229a821a46d36813f0010f77
:1006c800fbd03e4b00221a7403f500633c4ada6201
:1006d8001a46536813f0200ffbd13a4b3a4a9a62f4
:1006e8001a46536813f0100ffbd1364b374a1a637a
:1006f8001a46536813f0400ffbd1324b4222c3f81d
:1007080084201a46d2f8843013f0400ffad0304bc8
:1007180000229a6377225a631a46d36b13f0040fa8
:10072800fbd12b4b022283f830201a46d36b13f0ef
:10073800020ffbd1264a136c03f00303032bfad1f3
:10074800244b01225a711a46d37813f0010ffbd0bb
:100758001c4b214a1a621a46536813f0040ffbd146
:10076800184b1e4a5a621a46536813f0080ffbd1f9
:10077800144b4322c3f8a4201a46d2f8a43013f02d
:10078800400ffad00f4b4422c3f8ec201a46d2f897
:10079800ec3013f0400ffad00a4b4422c3f8f02093
:1007a8001a46d2f8f03013f0400ffad0094b0c4a31
:1007b8001a6144f2ff725a61704700bf001400408a
:1007c80004012000001c0040060130000601020060
:1007d8000010004000080040070101000701020066
:0407e800fffffb0014
:020000040000fa
:1007ec001c0100201c000000000000006000002024
:1007fc002c00000000000000dc00002020000000a5
:10080c000000000000000020580000000000000064
:10081c004401002001000000000000004501002000
:10082c000100000000000000460100200100000053
:10083c000000000047010020010000000000000043
:10084c0058000020040000000100000000000044db
:10085c00fc00002020000000000000008c000020a4
:10086c002800000000000000b40000202800000058
:10087c000000000048010020010000000000000002
:10088c00380100200c00000000000000490100208d
:10089c0001000000000000005c00002004000000cb
:1008ac0000000000000000000000000022222222b4
:020000040000fa
:1008bc0010b582b02c4800f059f80024009423465f
:1008cc0022462821204600f0cffa009423462246e7
:1008dc003221012000f0c8fa009423462246c82198
:1008ec00022000f0c1fa0094234622466421032022
:1008fc0000f0bafa0094234664221146042000f05a
:10090c00b3fa0094234622462146052000f0acfaa7
:10091c000094234622462146062000f0a5fa0094b6
:10092c00234622462146072000f09efa00942346d7
:10093c0022462146082000f097fa00942346022212
:10094c002146092000f090fa0094234622462146c5
:10095c000a2000f089fa00942346224621460b20f7
:0c096c0000f082fa02b010bd89110000fa
:020000040000fa
:1009780070b50646254b1d68254c04232370254871
:1009880000f0a4f8012262700023a370e270022133
:10099800a172e372237363736371a371e3712372aa
:1009a8000323a376e27705f00f03934208d0184b90
:1009b800002283f85020164b5e6500f0fbfa70bdec
:1009c800c5f302159542f2d10c2284f8502000f0ac
:1009d800c7fb0028fbd1104b1868d0f8fc33b3f1e3
:1009e8005a3f09d00a4a02f120035032002143f845
:1009f800041b9342fbd1dee7031f084a2c3053f84f
:100a0800041f42f8041f8342f9d1d4e70440800050
:100a18000000002060000020580000201c0000207a
:020000040000fa
:100a2800f8b59df818c0bcf1010f01d90020f8bd38
:100a38004ff08443d3f8c43013f4001f3fd14ff074
:100a48008443d3f8c440c4f3044426011d4b9f6972
:100a5800bd19b0f5006f26bf20f0604040f080401f
:100a68008004b8510b46082928bf08231804686079
:100a78001cf0fd0f1ed111461a4605f1080000f0c2
:100a880031fb114a13780133dbb213706a6842ea0a
:100a9800036343f400036b60012000fa04f44ff091
:100aa8008443c3f8e040c3f8d0405a6d42f4007262
:100ab8005a65bce7bb5943f00053bb51e1e700203e
:0c0ac800b5e700bf8c00002048010020b2
:020000040000fa
:100ad40010b504462c22002100f04cfb4ff0844357
:100ae40001229a611a46936913f0010ffbd04ff06b
:100af40084439a6942f002029a611849cc60a2b216
:100b040042f0004242f48032c3f8a02004f1100203
:100b14008a6192b242f08072c3f8c02004f12002cc
:100b2400ca6192b242f48032c3f8f02004f1280280
:100b34000a620b49a16292b242f48032c3f8842063
:100b44009a6922f4804222f0010242f480429a61be
:100b54001a46936913f0010ffbd110bd8c000020dd
:040b64001102040a6c
:020000040000fa
:100b680008b51b4b98471b4b9847eff3108172b69b
:100b7800194ad2f8883043f47003c2f88830bff3ba
:100b88004f8fbff36f8f01b962b6144c2023636097
:100b980000f0b6f8124b23f07f030f4a9360114b15
:100ba8009847a36823f00103a3602346da6812f08c
:100bb800010ffbd1094b5a6842f004025a60012226
:100bc8009a60094b9847094b984700f0ddf8fee713
:100bd800bb110000bb11000000ed00e00060004107
:100be800000000002d0e0000bb110000bb1100002a
:020000040000fa
:100bf80038b54ff0844301229a611a46936913f07d
:100c0800010ffbd04ff084439a6942f002029a61c7
:100c1800164ada612b22c3f8802001221a629a69e7
:100c280022f4804222f0010242f480429a611a467c
:100c3800936913f0010ffbd14ff0844300249c65a6
:100c48000122da654ff000725a65094d2c606c601c
:100c5800ac6028222146074800f08afaec602c6133
:100c68006c61ac61ec612c626c6238bd00050200fd
:080c78008c000020b4000020f4
:020000040000fa
:100c800010b41f4b1f4a1a60402183f843100622fc
:100c900083f8442083f8452083f84b1083f84e10e6
:100ca00083f84f2083f8531083f8542083f855209d
:100cb000012083f8560083f8570083f85b208824ce
:100cc00083f83b40a4f1ff44583cc3f8804083f8cc
:100cd000c02083f8c12083f8c22083f8c32083f8a2
:100ce000c41083f8cc0083f8cd0083f8ce2083f8bd
:100cf000d710772283f8b6205df8044b704700bf09
:080d00000080004104480800d6
:020000040000fa
:100d08001e4b1f4a9342f0b438bf002103d203f8a8
:100d1800011b9342fbd11b4ad2e9000150ea0103af
:100d28004ff0000610d09468034602f10c076cb926
:100d380021b1014403f8016b9942fbd13a46d2e94b
:100d4800000150ea0103eed1f0bc704759b101f13e
:100d58000c030c38801a1a443b461c1813f8015b24
:100d680025709342f9d111f0030318bf012303eb57
:100d7800910107eb81073a46e1e700bf0000002038
:080d880000000020ec07000050
:020000040000fa
:100d900008b5002000f08af900210f4800f0fcf9a6
:100da00000f0b2f900f0bcf9fff788fd0b4c00f041
:100db000f9f9237813f0020f07d1237813f0040f09
:100dc000f5d023f004032370f1e723f0020323702e
:100dd00000f0f4f9f1e700bff50f00004901002031
:020000040000fa
:100de000f0b59df81440ecb94ff0844cdcf8a450f9
:100df000c5f305250c4cae007719bf0004eb070eb8
:100e0000e051cef80420cef80810cef80c30069b46
:100e1000cef81030dcf8543043f00103ccf85430f5
:0c0e2000012000e00020f0bdb400002024
:020000040000fa
:100e2c0070b50d4d0d4c641ba4100026a64209d1c3
:100e3c000b4d0c4cfff70efa641ba4100026a642b7
:100e4c0005d170bd55f8043b98470136eee755f8cf
:100e5c00043b98470136f2e76c0200006c0200007c
:080e6c006c020000700200009e
:020000040000fa
:100e740030b40e4c2468d4f8fc43b4f15a3f13d078
:100e84000b4c94f8504084420ed9094c00f10805eb
:100e940004f8251004eb800080f8212080f822302b
:100ea4009df8083080f8233030bc7047580000208b
:040eb400000000201a
:020000040000fa
:100eb8000f4b01221a801a46136913f0010ffbd158
:100ec8000b4b4ff401421a8000221a621a4613692a
:100ed80013f0200ffbd1064b00225a621a46136901
:100ee80013f0400ffbd1024b83225a81704700bf99
:040ef8000024004092
:020000040000fa
:100efc0010b5054c237833b9044b13b10448aff348
:100f0c0000800123237010bd1c0100200000000094
:100f1c000000000008b5034b1bb103490348aff3b5
:100f2c00008008bd0000000020010020000000002f
:020000040000fa
:100f3c004ff08443586c20f4605020f018004004ab
:100f4c00400c9b6913f0010f11d04ff08442936950
:100f5c0043f002039361936923f4804323f001036c
:100f6c0043f480439361936913f0010ffbd17047f5
:020000040000fa
:100f7c000d4ad36823f4e0631b041b0c43f0bf63de
:100f8c0043f40033d360bff35f8f62b6074be022ac
:100f9c0083f80b234ff40061196083f84e234ff450
:100fac0080429a60704700bf00ed00e000e100e075
:020000040000fa
:100fbc0000b583b000221146084800f083f80848b9
:100fcc00084b01930023009300f10e03021d00f166
:100fdc000c01fff7fffe03b05df804fb5d10000091
:080fec00dc000020450100209b
:020000040000fa
:100ff40010f0010f04d00b4a137843f0020313706e
:1010040010f0020f04d0074a137843f0040313705e
:1010140010f0800f04d0034a137843f001031370d7
:08102400704700bf49010020e4
:020000040000fa
:10102c000a4b01221a601a46136913f0010ffbd107
:10103c00064b40f214721a6001221a731a7733228b
:10104c009a721a461369002bfcd170470038004085
:020000040000fa
:10105c0008b5fff76dff10f0070005d0072803d087
:10106c00034b01221a7002e0024b01221a7008bdd8
:08107c0046010020470100209d
:020000040000fa
:1010840008b5074a908980b2064b58604cf2ff318c
:1010940091811b6813b1034a9168984708bd00bf4a
:0810a400002400403801002087
:020000040000fa
:1010ac0008b500f053f8fff7e5fdfff7fffa00f085
:1010bc006cf8fff79bfdfff7f9fefff7b1fffff7a9
:0410cc0057ff08bd05
:020000040000fa
:1010d00010b428b1044b43f8320003ebc20359604b
:0c10e0005df8044b704700bffc000020ce
:020000040000fa
:1010ec000a44914200f1ff3300d1704710b511f85a
:0c10fc00014b03f8014f9142f9d110bde7
:020000040000fa
:10110800044a138843f002031380136913f0020f93
:08111800fbd1704700240040e8
:020000040000fa
:10112000044a136843f002031360136913f0020fbb
:08113000fbd1704700380040bc
:020000040000fa
:10113800024b03229a725873704700bf00000020c8
:020000040000fa
:101148000001020304050607080c1014182030409b
:020000040000fa
:10115800024b40f204521a80704700bf0040004121
:020000040000fa
:10116800024bd86ac0f38000704700bf00400041be
:020000040000fa
:1011780002440346934200d1704703f8011bf9e784
:020000040000fa
:0e11880000b9704708b50420fff7d2ff08bd7c
:020000040000fa
:021196007047a0
:020000040000fa
:0c119800014b186099607047380100207e
:020000040000fa
:0811a40008b5fff76bf808bd68
:020000040000fa
:0211ac00fee75c
:020000040000fa
:0211ae00fee75a
:020000040000fa
:0211b000fee758
:020000040000fa
:0211b200fee756
:020000040000fa
:0211b400fee754
:020000040000fa
:0211b600fee752
:020000040000fa
:0211b800fee750
:020000040000fa
:0211ba0070477c
:020000040000fa
:0211bc0070477a
:020000040000fa
:0200000400807a
:044000003912003c35
:020000040000fa
:0200000400807a
:044004009100a82a55
:020000040000fa
:0200000400807a
:04400800ffffffffb8
:00000001FF
