:020000040000fa
:10200000f0ff0320592d0000f3370000f5370000e2
:10201000f9370000fb370000fd370000000000002a
:10202000000000000000000000000000f137000088
:10203000f737000000000000f1370000f137000022
:10204000f1370000f1370000f1370000f1370000f0
:10205000f1370000f1370000f1370000f1370000e0
:10206000f1370000f1370000f1370000e9350000da
:10207000f1370000f1370000f1370000f1370000c0
:10208000f1370000f1370000f1370000f1370000b0
:10209000f1370000f1370000f1370000f1370000a0
:1020a000f1370000f1370000f1370000f137000090
:1020b000f1370000f1370000f1370000f137000080
:1020c000f1370000f1370000f1370000f137000070
:1020d000f1370000f1370000f1370000f137000060
:1020e000f1370000f13700000000000000000000a0
:1020f00000000000f1370000f1370000f137000068
:10210000f1370000f1370000f1370000f13700002f
:10211000f1370000f1370000f1370000f13700001f
:10212000f1370000f1370000f1370000f13700000f
:10213000f1370000f1370000f1370000f1370000ff
:10214000f1370000f1370000f1370000f1370000ef
:10215000f1370000f137000000000000000000002f
:10216000000000000000000000000000000000006f
:102170000000000000000000f1250000f137000021
:10218000f1370000f1370000f1370000f1370000af
:1021900000000000f1370000f1370000f1370000c7
:1021a000f1370000f1370000f1370000f13700008f
:1021b000f1370000f1370000f1370000f13700007f
:1021c000f1370000f1370000f1370000f13700006f
:1021d000f1370000f1370000f1370000f13700005f
:1021e000f1370000f1370000f1370000f13700004f
:1021f00041350000f1370000f1370000f1370000f1
:10220000f13700000000000000000000f13700007e
:10221000f1370000f1370000f1370000f13700001e
:10222000f1370000f1370000f1370000f13700000e
:10223000f1370000f1370000f1370000f1370000fe
:10224000f1370000f1370000f1370000f1370000ee
:10225000f1370000f1370000f1370000f1370000de
:020000040000fa
:10226000f8b500bff8bc08bc9e4670473533000087
:10227000f8b500bff8bc08bc9e467047113300009b
:020000040000fa
:10228000f0b583b0a94b1b78a3b9a94b1b78002be1
:1022900040f05e81a74b1b78002b40f06081a64b7d
:1022a0001b78002b00f05981a34b00221a7001f01b
:1022b000a9f852e19d4b00221a70a04b1b7b082b02
:1022c00005d19e4c221d04f10c05002103e001f014
:1022d0007df842e1194612f8010b80ea0103dbb2f6
:1022e000aa42f7d1884219d1944b1b79944a1278ab
:1022f0009a4216d0924a1370904b03f11402191da2
:1023000003c982e803005b79013b092b12d8dfe89f
:1023100003f00b29333c546c839ab1ca01f056f890
:102320001be101f053f818e1864bd3f80120834bf1
:10233000c3f81720844b04f11b00002113f8012b74
:1023400051408342fad17d4ad1767e4b18780023e2
:1023500000931432082100f5007000f00ffc01f02a
:1023600035f8fae0774bd3f80510744ac2f8171025
:1023700000225a719a71dde7704a724b53f8091fb7
:10238000c2f816101b799376d4e76c4b9b796d4a93
:10239000927e9a4209d902336a4a02eb8303d3f848
:1023a0000620664bc3f81720c4e7644b00225a7519
:1023b00004229a750122da75bce7604b9b79614a69
:1023c000d27f9a4209d906335e4a02eb8303d3f8df
:1023d00003205a4bc3f81720ace7584b00225a751c
:1023e00005229a750122da75a4e7544b9b79554a68
:1023f00092f850209a4207d90833524a52f82320c3
:102400004e4bc3f8172095e74c4b00225a75062215
:102410009a750122da758de7484b9b79494ad27f3c
:102420009a4208d9454ad2f81710464a02eb83036c
:10243000c3f81b107ee7414b00225a7507229a759c
:102440000122da7576e73d4b9b793e4a92f850209f
:102450009a4207d90833394ad2f81710394a42f854
:10246000231067e7354b00225a7508229a7501221e
:10247000da755fe7334d05f11c0305f14c07334e68
:10248000c5f1ff2505f57f05e435ea18316853f8f5
:10249000040f8850bb42f8d12c4b1b684ff05a32c6
:1024a000c3f8fc2346e7274b5e6d2eb3234b987988
:1024b00028b1244b9b7a012b2ed0224b5872214df0
:1024c0000423ab720023eb722b731c498b7a0093ad
:1024d0004b7a0a7ac979b047ab7a032b03d9032226
:1024e000aa7205226a73154a164b53f8091fc2f8df
:1024f00016101b7993761de7104a917959720321c2
:1025000099720021d972197304215973d3f80930d3
:10251000c2f8163091760de7084b0322da750022d7
:102520001a765a7601229a7604e700bf99010020b4
:102530009801002097010020960100202001002032
:102540009401002000000020340100207c000020c5
:10255000224b00221a7000f039ff03b0f0bd204b6f
:1025600000221a701f4b1b7b082b16d11d4b03f149
:102570001402191d03c982e803001b79012b0fd037
:10258000194b187800230093184a082100f5807031
:1025900000f0f4fa00f036ffdfe700f033ffdce78d
:1025a000114b93f86830002b0cbf002202220d4b18
:1025b0005a750d4a92f85c10997592f85d10d975ac
:1025c00092f85e10197692f85f10597692f86010c2
:1025d000997692f86120da76d2e700bf9801002060
:1025e00097010020000100200000002014010020bd
:020000040000fa
:1025f0002de9f04784b04ff084431c6d14f0007f48
:102600001cbf4ff000721a6514f0010f62d04ff03a
:10261000844301221a655a6d22f001025a65d3f8eb
:10262000a43013f07f0f55d04ff08443d3f8a4505b
:10263000c5f305252b014a4ad268d718d15811f0a5
:10264000804fd15805eb8500464e56f8200014bf48
:1026500021f06041c1f38a410160d2587b6813f4d4
:10266000001f02d112f0005f71d105eb85033d4ad6
:1026700002eb83031b6900221a707e683a4b0fcb72
:102680000df1100c0ce90f00c6f30346664416f872
:1026900010ac344e4fea850808eb050906eb8909b2
:1026a000524607f10801d9f8040000f0cfffd9f82d
:1026b000083083f800a0d9f80c300bb17a681a8082
:1026c0004ff08443c3f8a850284b1b6813b1274a26
:1026d0005068984714f4007f20d04ff084434ff4a3
:1026e00000721a655a6d22f400725a65d3f8d82028
:1026f000d3f8e03013f0010f0ad012f0010f07d029
:102700004ff08442d2f8e03023f00103c2f8e03009
:10271000164b9b6913b1154ad069984714f4006fa2
:1027200012d04ff084424ff400631365d2f8c430e6
:10273000c3f30423d2f8c420c2f30442934203d269
:102740000133dbb29a42fbd104b0bde8f08705eb60
:102750008503044a02eb83031b6901221a708ce78c
:10276000b0000020d80000203837000040010020d1
:020000040000fa
:10277000494b00221a7403f50063484ada621a468c
:10278000536813f0200ffbd1454b464a9a621a4614
:10279000536813f0100ffbd1414b434a1a631a469a
:1027a000536813f0400ffbd13d4b4222c3f8842005
:1027b0001a46d2f8843013f0400ffad03b4b002277
:1027c0009a6377225a631a46d36b13f0040ffbd136
:1027d000364b022283f830201a46d36b13f0020fd7
:1027e000fbd1324a136c03f00303032bfad1304bb5
:1027f00001225a711a46d37813f0010ffbd0284bef
:102800002c4a1a621a46536813f0040ffbd1244b6a
:10281000294a5a621a46536813f0080ffbd1204b1d
:102820004222c3f8a4201a46d2f8a43013f0400f75
:10283000fad01b4b4422c3f8ec201a46d2f8ec30f5
:1028400013f0400ffad0164b4422c3f8f0201a467a
:10285000d2f8f03013f0400ffad0114b4122c3f8f8
:1028600020211a46d2f8203113f0400ffad00c4b39
:102870004122c3f824211a46d2f8243113f0400f24
:10288000fad00b4b0d4a1a614cf2ff725a614ff4a9
:10289000c0721a62704700bf00140040040120009b
:1028a000001c00400601300006010200001000403c
:1028b000000800400701010007010200fffffb00c4
:020000040000fa
:1028c000600100201c0000000000000080000020cb
:1028d0003000000000000000000100202000000087
:1028e0000000000020010020200000000000000087
:1028f000000000206c000000000000009401002097
:10290000010000000000000095010020010000000f
:1029100000000000960100200100000000000000ff
:102920009701002001000000000000009801002035
:1029300001000000000000009901002001000000db
:10294000000000007c0000200400000001000000e6
:1029500000000044400100202000000000000000b2
:10296000b00000202800000000000000d800002077
:1029700028000000000000009a0100200100000073
:10298000000000007c0100200c000000000000009e
:102990008801002008000000000000009b010020ca
:1029a00001000000000000006c000020100000008a
:1029b000000000009c010020010000000000000059
:1029c0009d01002001000000000000009001002097
:1029d00004000000000000000000000000000000f3
:020000040000fa
:1029e00070b50646304b1d68304c042323703048c8
:1029f00000f01af9012262700023a370e270022134
:102a0000a172e372237363736371a371e371237221
:102a10000323a376e27705f00f0393421ed0234be6
:102a2000002283f85020214c666500f0cffc4ff067
:102a3000005304f158050fcb85e80f001d4b984259
:102a40000cbf0123002384f8683006d14ff00053f7
:102a50000122da71002119725a7270bdc5f3021594
:102a60009542dcd10c2284f8502000f075fe00283d
:102a7000fbd1114b1868d0f8fc33b3f15a3f09d0a1
:102a80000a4a02f120035032002143f8041b93420a
:102a9000fbd1c8e7031f094a2c3053f8041f42f842
:102aa000041f8342f9d1bee70440800000000020eb
:102ab00080000020118213847c0000201c00002074
:020000040000fa
:102ac00010b582b02c48fff78bff002400942346fa
:102ad00022462821204600f0d7fb009423462246b8
:102ae0003221012000f0d0fb009423462246c82169
:102af000022000f0c9fb00942346224664210320f3
:102b000000f0c2fb0094234664221146042000f02a
:102b1000bbfb0094234622462146052000f0b4fb6f
:102b20000094234622462146062000f0adfb009487
:102b3000234622462146072000f0a6fb00942346a8
:102b400022462146082000f09ffb009423460222e3
:102b50002146092000f098fb009423462246214696
:102b60000a2000f091fb00942346224621460b20c8
:0c2b700000f08afb02b010bd89370000a5
:020000040000fa
:102b7c00f8b59df818c0bcf1010f01d90020f8bdc3
:102b8c004ff08443d3f8c43013f4001f3fd14ff0ff
:102b9c008443d3f8c440c4f3044426011d4b9f69fd
:102bac00bd19b0f5006f26bf20f0604040f08040aa
:102bbc008004b8510b46082928bf08231804686004
:102bcc001cf0fd0f1ed111461a4605f1080000f04d
:102bdc0037fd114a13780133dbb213706a6842ea8d
:102bec00036343f400036b60012000fa04f44ff01c
:102bfc008443c3f8e040c3f8d0405a6d42f40072ed
:102c0c005a65bce7bb5943f00053bb51e1e70020c8
:0c2c1c00b5e700bfb00000209a010020c6
:020000040000fa
:102c280038b504463022002100f0a2fd4ff084435d
:102c380001229a611a46936913f0010ffbd04ff0f5
:102c480084439a6942f002029a611949cc60a2b29f
:102c580042f0004242f48032c3f8a02004f110028e
:102c68008a6192b242f08072c3f8c02004f1200257
:102c7800ca6192b242f48032c3f8f02004f128020b
:102c88000a620c4d03cda062e16292b242f40032b6
:102c9800c3f884209a6922f4804222f0010242f4a7
:102ca80080429a611a46936913f0010ffbd138bd2f
:082cb800b0000020e03700002d
:020000040000fa
:102cc000224b1b6a13f4006f204b4ff4803214bf69
:102cd000c3f89820c3f894201c4b1b6a1c4a127836
:102ce000c3f340339a4225d000b583b0174b1b6a1b
:102cf000c3f34033164a1370bbb14ef66023019301
:102d0000012300934ff4fa7332220021032000f0d4
:102d100069f90f4b1b782bb10e4b5b7b13b90c4b36
:102d200000221a7003b05df804fb0121022000f0bc
:102d30001dfceee7064b1b7833b1064b5b7b1bb9e2
:102d4000034b00221a707047704700bf008000419b
:082d50009b0100206c00002033
:020000040000fa
:102d580008b51b4b98471b4b9847eff3108172b689
:102d6800194ad2f8883043f47003c2f88830bff3a8
:102d78004f8fbff36f8f01b962b6144c2023636085
:102d880000f072f8124b23f07f030f4a9360114b47
:102d98009847a36823f00103a3602346da6812f07a
:102da800010ffbd1094b5a6842f004025a60012214
:102db8009a60094b9847094b984700f099f8fee745
:102dc800ff370000ff37000000ed00e00060004121
:102dd8000020000041320000ff370000ff370000ec
:020000040000fa
:102de80038b54ff0844301229a611a46936913f06b
:102df800010ffbd04ff084439a6942f002029a61b6
:102e0800164ada612b22c3f8802001221a629a69d5
:102e180022f4804222f0010242f480429a611a466a
:102e2800936913f0010ffbd14ff0844300249c6594
:102e38000122da654ff000725a65094d2c606c600a
:102e4800ac6028222146074800f092fcec602c6117
:102e58006c61ac61ec612c626c6238bd00050200eb
:082e6800b0000020d80000209a
:020000040000fa
:102e70001e4b1f4a9342f0b438bf002103d203f81f
:102e8000011b9342fbd11b4ad2e9000150ea010326
:102e90004ff0000610d09468034602f10c076cb99d
:102ea00021b1014403f8016b9942fbd13a46d2e9c2
:102eb000000150ea0103eed1f0bc704759b101f1b5
:102ec0000c030c38801a1a443b461c1813f8015b9b
:102ed00025709342f9d111f0030318bf012303ebce
:102ee000910107eb81073a46e1e700bf00000020af
:082ef00000000020c0280000d2
:020000040000fa
:102ef80008b5002000f008fb00211a4800f054fc37
:102f080000f0defbfff7d8fd00f02afc00f0cafa5b
:102f180000f07afb144c154d00f062fc237813f096
:102f2800020f0fd1237813f0040f13d1237813f075
:102f3800010ff1d023f0010323704ff00043c5f8cf
:102f48009c30e9e723f00203237000f056fcfff7fa
:102f5800b3fee7e723f00403237000f04dfc00f014
:102f680035fce3e7753400009d0100200080004136
:020000040000fa
:102f7800174b184a1a60042083f8440083f8450068
:102f8800012283f84620062183f84b1083f84d1060
:102f9800402183f84e1083f8531083f8562083f8a5
:102fa800572083f85b0083f83300882083f83b00c0
:102fb8000948c3f8800083f8c41083f8c82083f850
:102fc800c92083f8d710112283f8b420704700bfb6
:0c2fd80000800041fc170008000cc380c2
:020000040000fa
:102fe40038b5059d174c628023809df810302371fd
:102ff400f5b1a56001222273f1b9134b4ff480722d
:103004005a6100f019fa032000f07cf80e4b1022ec
:103014009a6120229a614ff48062c3f89820094c87
:10302400208800f073fb0123637300f057fb38bd65
:10303400044b00221a73dfe7034b4ff480729a614a
:0c304400dfe700bf6c00002000800041ae
:020000040000fa
:10305000154b01221a801a46136b13f0010ffbd196
:103060004ff080131b681a0902f07002d90001f4b6
:10307000e061c3f382030a431a430b4ba3f84820d1
:103080004ff4e0621a800322da721a7241f60202e9
:103090009a801222da80072283f82e201a46136bb8
:0c30a000002bfcd1704700bf001c004357
:020000040000fa
:1030ac00154b01221a801a46136b13f0010ffbd13a
:1030bc004ff080131b689a0c02f07002d90a01f4cd
:1030cc00e061c3f302430a431a430b4ba3f84820b5
:1030dc004ff4e0621a800322da721a7241f601028e
:1030ec009a801222da80072283f82e201a46136b5c
:0c30fc00002bfcd1704700bf00200043f7
:020000040000fa
:10310800032824d8dfe800f00206101a104b8022aa
:103118009a6170470e4b4ff400729a614ff48062c7
:103128009a6180225a617047094b4ff400729a6184
:103138004ff480625a6180225a617047044b4ff401
:1031480000725a614ff480629a6180225a61704716
:0431580000800041b2
:020000040000fa
:10315c0008b5114b1b7803b908bd0f4b00221a7030
:10316c0000f026fb0d4b5b8883420ed30b4b1b7b75
:10317c00002bf1d0094a9368013b9360002bebd1f3
:10318c000121002000f0ecf9e6e7044b1b79c01a92
:10319c0080b200f0b7fae9e79c0100206c00002037
:020000040000fa
:1031ac00f0b59df81440ecb94ff0844cdcf8a45009
:1031bc00c5f305250c4cae007719bf0004eb070ec8
:1031cc00e051cef80420cef80810cef80c30069b57
:1031dc00cef81030dcf8543043f00103ccf8543006
:0c31ec00012000e00020f0bdd800002011
:020000040000fa
:1031f8000f4ad36823f4e0631b041b0c43f0bf633e
:1032080043f40033d360bff35f8f62b6094be0220b
:1032180083f80b234ff40061196083f84e234ff4b1
:103228008041996083f86c234ff48052da607047cc
:0832380000ed00e000e100e000
:020000040000fa
:1032400070b50d4d0d4c641ba4100026a64209d18b
:103250000b4d0c4cfff704f8641ba4100026a6428b
:1032600005d170bd55f8043b98470136eee755f897
:10327000043b98470136f2e76c2200006c22000004
:083280006c2200007022000026
:020000040000fa
:1032880030b40e4c2468d4f8fc43b4f15a3f13d040
:103298000b4c94f8504084420ed9094c00f10805b3
:1032a80004f8251004eb800080f8212080f82230f3
:1032b8009df8083080f8233030bc70477c0000202f
:0432c80000000020e2
:020000040000fa
:1032cc000f4b01221a801a46136913f0010ffbd120
:1032dc000b4b4ff401421a8000221a621a461369f2
:1032ec0013f0200ffbd1064b00225a621a461369c9
:1032fc0013f0400ffbd1024b83225a81704700bf61
:04330c000024004059
:020000040000fa
:1033100010b5054c237833b9044b13b10448aff30f
:1033200000800123237010bd600100200000000018
:103330000000000008b5034b1bb103490348aff37d
:10334000008008bd000000006401002000000000b3
:020000040000fa
:103350004ff08443586c20f4605020f01800400473
:10336000400c9b6913f0010f11d04ff08442936918
:1033700043f002039361936923f4804323f0010334
:1033800043f480439361936913f0010ffbd17047bd
:020000040000fa
:103390000c4b01221a601a46136913f0010ffbd17e
:1033a000084b10221a6001221a739a8333219972f2
:1033b0000549002008605a721a461369002bfcd197
:0c33c000704700bf003c00408801002066
:020000040000fa
:1033cc0000b583b000221146084800f02bf90848dc
:1033dc00084b01930023009300f10e03021d00f132
:1033ec000c01fff7ddfe03b05df804fb993500001e
:0833fc002001002095010020d2
:020000040000fa
:1034040000b583b001220021084800f00ff90848f4
:10341400084b01930123009300f10e03021d00f1f8
:103424000c01fff7c1fe03b05df804fbc1350000d9
:083434000001002095010020b9
:020000040000fa
:10343c0028b90c4b04225a6108225a6170470128a2
:10344c0009d00228074b4ff004020cbf5a619a6155
:10345c0008229a617047034b04229a6108225a6130
:08346c00704700bf0080004121
:020000040000fa
:1034740010f0010f04d00b4a137843f002031370c9
:1034840010f0020f04d0074a137843f004031370ba
:1034940010f0800f04d0034a137843f00103137033
:0834a400704700bf9d010020ec
:020000040000fa
:1034ac0008b50020fff72afe074b10229a61202254
:1034bc009a6100f01bf90021044800f07ff9044bdd
:1034cc0000225a7308bd00bf008000415d3100002e
:0434dc006c00002060
:020000040000fa
:1034e0000a4b01221a601a46136913f0010ffbd12f
:1034f000064b40f214721a6001221a731a773322b3
:103500009a721a461369002bfcd1704700380040ac
:020000040000fa
:1035100008b500f019f9fff72ffdfff729f900f0c2
:103520003af9fff795fdfff7c1fdfff75dfcfff7e7
:103530002ffffff7cbfefff7d3fffff75dfe08bdc0
:020000040000fa
:1035400008b5084b5b7a63b1064a937a33219172ce
:1035500003f0ff002bb1044b1b6813b1024a516802
:0c356000984708bd003c00408801002096
:020000040000fa
:10356c0038b504460d4600f0c1f82846fff7c6fdf5
:10357c00044b9c7300225a73034b4ff48062c3f8c4
:0c358c00942038bd6c000020008000413d
:020000040000fa
:1035980008b5fff7d9fe10f0070005d0072803d0bb
:1035a800034b01221a7002e0024b01221a7008bd77
:0835b800980100209901002098
:020000040000fa
:1035c00008b5fff7c5fe10f0070005d0072803d0a7
:1035d000034b01221a7002e0024b01221a7008bd4f
:0835e000960100209701002074
:020000040000fa
:1035e80008b5074a908980b2064b58604cf2ff3103
:1035f80091811b6813b1034a9168984708bd00bfc1
:08360800002400407c010020b9
:020000040000fa
:1036100008b5064b4ff000629a6100f025f800f003
:103620003bf800f02df800f043f808bd00800041a1
:020000040000fa
:1036300010b428b1044b43f8320003ebc2035960c5
:0c3640005df8044b704700bf4001002003
:020000040000fa
:10364c000a44914200f1ff3300d1704710b511f8d4
:0c365c00014b03f8014f9142f9d110bd61
:020000040000fa
:10366800044a138843f002031380136b002bfcd128
:08367800704700bf001c004375
:020000040000fa
:10368000044a137d43f002031375136b13f4006fa8
:08369000fbd17047001c004350
:020000040000fa
:10369800044a138843f002031380136b002bfcd1f8
:0836a800704700bf0020004341
:020000040000fa
:1036b000044a137d43f002031375136b13f4006f78
:0836c000fbd17047002000431c
:020000040000fa
:1036c800044a138843f002031380136913f0020fae
:0836d800fbd170470024004003
:020000040000fa
:1036e000044a136843f002031360136913f0020fd6
:0836f000fbd17047003c0040d3
:020000040000fa
:1036f800044a136823f002031360136913f0020fde
:08370800fbd17047003c0040ba
:020000040000fa
:10371000044bdb7a13f0100f03bf024b1886012015
:0837200000207047003c00404e
:020000040000fa
:10372800024b03229a725873704700bf00000020b2
:020000040000fa
:103738000001020304050607080c10141820304085
:020000040000fa
:10374800024b40f204521a80704700bf004000410b
:020000040000fa
:10375800024bd86ac0f38000704700bf00400041a8
:020000040000fa
:10376800024b4ff480525a61704700bf00800041fd
:020000040000fa
:1037780002440346934200d1704703f8011bf9e75e
:020000040000fa
:0e37880000b9704708b50420fff7caff08bd5e
:020000040000fa
:0237960070477a
:020000040000fa
:0c379800014bb3f840007047001c0043d8
:020000040000fa
:0c37a400014bb3f84000704700200043c8
:020000040000fa
:0c37b000014b1860996070477c010020fc
:020000040000fa
:0c37bc00014b988b704700bf003c0040a0
:020000040000fa
:0c37c800014b1860596070478801002018
:020000040000fa
:0c37d40008b5fff7dffffff7e3ff08bdbb
:020000040000fa
:0837e0000402040a04010411b3
:020000040000fa
:0837e80008b5fef749fd08bd1c
:020000040000fa
:0237f000fee7f2
:020000040000fa
:0237f200fee7f0
:020000040000fa
:0237f400fee7ee
:020000040000fa
:0237f600fee7ec
:020000040000fa
:0237f800fee7ea
:020000040000fa
:0237fa00fee7e8
:020000040000fa
:0237fc00fee7e6
:020000040000fa
:0237fe00704712
:020000040000fa
:0238000070470f
:020000040000fa
:0238020070470d
:020000040000fa
:0200000400807a
:044000003912003c35
:020000040000fa
:0200000400807a
:044004009100a82a55
:020000040000fa
:0200000400807a
:04400800ffffffffb8
:00000001FF
