:020000040000fa
:10200000f0ff0320e932000045440000474400008f
:102010004b4400004d4400004f440000000000000d
:102020000000000000000000000000004344000029
:102030004944000000000000434400004344000005
:102040004344000043440000434400004344000074
:102050004344000043440000434400004344000064
:10206000434400004344000043440000a9410000f1
:102070004344000043440000434400004344000044
:102080004344000043440000434400004344000034
:102090004344000043440000434400004344000024
:1020a0004344000043440000434400004344000014
:1020b0004344000043440000434400004344000004
:1020c00043440000434400004344000043440000f4
:1020d00043440000434400004344000043440000e4
:1020e00043440000434400000000000000000000e2
:1020f000000000004344000043440000434400004b
:1021000043440000434400004344000043440000b3
:1021100043440000434400004344000043440000a3
:102120004344000043440000434400004344000093
:102130004344000043440000434400004344000083
:102140004344000043440000434400004344000073
:102150004344000043440000000000000000000071
:10216000000000000000000000000000000000006f
:102170000000000000000000412b0000434400006c
:102180004344000043440000434400004344000033
:1021900000000000434400004344000043440000aa
:1021a0004344000043440000434400004344000013
:1021b0004344000043440000434400004344000003
:1021c00043440000434400004344000043440000f3
:1021d00043440000434400004344000043440000e3
:1021e00043440000434400004344000043440000d3
:1021f000d140000043440000434400004344000039
:1022000043440000000000000000000043440000c0
:1022100043440000434400004344000043440000a2
:102220004344000043440000434400004344000092
:102230004344000043440000434400004344000082
:102240004344000043440000434400004344000072
:102250004344000043440000434400004344000062
:020000040000fa
:10226000f8b500bff8bc08bc9e467047313e000080
:10227000f8b500bff8bc08bc9e4670470d3e000094
:020000040000fa
:1022800010b584b09b4b1b6ac3f3c0239a4a1376e4
:1022900092f82630dbb2102b00f23e82dfe813f01a
:1022a00011001c00340060007c009400ae00d600d9
:1022b000ef000a0130014a01660186019f01ba015f
:1022c000da018d4a92f826300133dbb282f82630eb
:1022d0008a4b00221a60a4e0884a13680133136015
:1022e00041f60a62934200f2f081834b1b7e002b81
:1022f00000f08f80804ae623d36192f826300133c4
:10230000dbb282f8263084e07c4a13680133136024
:1023100041f60a62934200f2d881774bda69013aba
:10232000da61db69002b74d1734b1b7e23b9724bce
:10233000012283f826206ce0142300934ff4fa6303
:1023400096220321012001f00dfb6b4a92f8263002
:102350000133dbb282f82630684b00221a6060e05d
:10236000664a13680133136040f20262934200f23e
:10237000ac81604b1b6a13f4006f4ad15f4b0022a3
:102380001a605d4a53680133d36192f826300133f5
:10239000dbb282f826303ce0584a13680133136000
:1023a000554bda69013ada61db69002b31d1524bc6
:1023b0009b78002b00f05d814f4a92f82630013364
:1023c000dbb282f8263024e04c4a136801331360f4
:1023d00040f20262934200f27881474a127ec2b113
:1023e000454ad362454b002119604c23d36192f8d2
:1023f00026300133dbb282f826300ae03f4a136808
:10240000013313603c4ad2696ab13b4ad369013b4c
:10241000d36101f0ffff384b5b8c0446984200f219
:102420009d8104b010bd344a127e002af1d1324a97
:102430001364324b0021196093680133d36192f821
:1024400026300133dbb282f82630e2e72b4a1368ec
:1024500001331360284bda69013ada61db69002b3a
:10246000d7d1254b9b78dbb2012b00f00281224aa9
:1024700092f826300133dbb282f82630c9e71f4ad2
:1024800013680133136040f20262934200f21d812f
:10249000194a127e002abcd0174a1363174b002139
:1024a00019604c23d36192f826300133dbb282f8f5
:1024b0002630aee7114a1368013313600e4ad26921
:1024c00022b10d4ad369013bd361a2e70a4a127ec9
:1024d000002a9ed1084a5364084b00211960d36832
:1024e0000133d36192f826300133dbb282f8263013
:1024f0008fe700bf0080004190090020d80a00202b
:102500009c4a1368013313609b4bda69013ada6124
:10251000db69002b7ff47daf974b9b78dbb2022bfe
:1025200000f0a780944a92f826300133dbb282f89b
:1025300026306ee78f4a13680133136040f202625f
:10254000934200f2c2808c4a127e002a3ff461afaf
:10255000894a5363874b002119604c23d36192f859
:1025600026300133dbb282f8263052e7814a136805
:1025700001331360804ad26922b17f4ad369013b9b
:10258000d36146e77c4a127e002a7ff442af7a4a42
:102590009364784b0021196013690133d36192f879
:1025a00026300133dbb282f8263032e7714a1368f5
:1025b00001331360704bda69013ada61db69002b91
:1025c0007ff427af6c4b9b78dbb2032b51d06a4a68
:1025d00092f826300133dbb282f8263019e7654adb
:1025e00013680133136040f2026293426dd8624a6d
:1025f000127e002a3ff40daf5f4a93635d4b0021ca
:1026000019604c23d36192f826300133dbb282f893
:102610002630fee6574a136801331360564ad269e2
:1026200022b1554ad369013bd361f2e6524a127e88
:10263000002a7ff4eeae504ad3644e4b002119605d
:1026400053690133d36192f826300133dbb282f84b
:102650002630dee6474a136801331360464bda69d9
:10266000013ada61db69b3fa83f35b09002b3ff4cb
:10267000d0ae0121002001f057fd01f055fe3e4b88
:1026800000221a7001225a70db78dbb2934245d0e7
:10269000394bdb78dbb2022b45d0374bdb78dbb232
:1026a000032b46d0344bdb78dbb2042b47d0324bc4
:1026b000db78dbb2052b48d0012001f01ff90022a6
:1026c0001146104601f0acfdabe60121084601f0d1
:1026d0002bfd01f029fe284b00241c705c70234662
:1026e0000df10f022146204601f04efa9df80f3001
:1026f00043f040038df80f3023460df10f022146c1
:10270000204601f0cffc22462146204601f088fdfc
:10271000012001f0f3f884e60023a7e70021084632
:1027200001f07efd16e002220021084601f078fd4e
:1027300010e003220021084601f072fd0ae00422a5
:102740000021084601f06cfd04e005220021084646
:1027500001f066fd002001f0d1f862e601f0e4fd31
:10276000054b988c201a80b201f0eafd01f0d0fdf3
:0c27700057e600bfd80a002090090020a6
:020000040000fa
:10277c0070b582b0af4b1b78a3b9af4b1b78002b55
:10278c0040f06c81ad4b1b78002b40f06e81ac4b54
:10279c001b78002b00f06781a94b00221a7001f006
:1027ac008dfb60e1a34b00221a70a64b1b7b082b00
:1027bc0005d1a44c221d04f10c05002103e001f00d
:1027cc007dfb50e1194612f8010b80ea0103dbb2e4
:1027dc00aa42f7d188421ed19a4b1b799a4a127899
:1027ec009a421bd0984a1370964b03f11402191d90
:1027fc0003c982e803005b79013b092b31d8dfe880
:10280c0013f02a00480052005b0074008d00a500f4
:10281c00bd001000d50001f051fb24e101f04efb8e
:10282c0021e18a4b93f8703973b1894a0023894ea0
:10283c00a2f24c6552f8040f316841f823000133c1
:10284c0095f870198b42f5db824b1b684ff05a32ae
:10285c00c3f8fc2305e07d4bd3f80120794bc3f87a
:10286c0017207d4b04f11b00002113f8012b514064
:10287c008342fad1734ad176744b187800230093b3
:10288c001432082100f5a07000f086fc01f016fb54
:10289c00e9e06e4bd3f805106a4ac2f81710002213
:1028ac005a719a71dde7674a684b53f8091fc2f8f1
:1028bc0016101b799376d4e7624b9b79634a92f896
:1028cc002e239a4209d90233604a02eb8303d3f8d0
:1028dc0006205c4bc3f81720c3e75a4b00225a75ed
:1028ec0004229a750122da75bbe7564b9b79574a3d
:1028fc0092f84f269a4209d9ca33544a02eb830301
:10290c00d3f807204f4bc3f81720aae74d4b0022f2
:10291c005a7505229a750122da75a2e7494b9b7903
:10292c004a4a92f870299a4208d903f5ca73474a61
:10293c0052f82320434bc3f8172092e7414b002257
:10294c005a7506229a750122da758ae73d4b9b79f6
:10295c003e4a92f84f269a4208d93a4ad2f81710b2
:10296c003a4a02eb8303c3f82f137ae7354b002264
:10297c005a7507229a750122da7572e7314b9b79e9
:10298c00324a92f870299a4208d903f5ca732d4a33
:10299c00d2f817102d4a42f8231062e7294b002277
:1029ac005a7508229a750122da755ae7274bd3f823
:1029bc0074692eb3234b987928b1244b9b7a012b45
:1029cc002ed0224b5872214d0423ab720023eb7294
:1029dc002b731c498b7a00934b7a0a7ac979b047ce
:1029ec00ab7a032b03d90322aa7205226a73154a08
:1029fc00164b53f8091fc2f816101b79937630e763
:102a0c00104a91795972032199720021d972197364
:102a1c0004215973d3f80930c2f81630917620e7a7
:102a2c00084b0322da7500221a765a7601229a761e
:102a3c0017e700bfe90a0020e80a0020e70a002097
:102a4c00e60a0020800a0020e40a00201000002082
:102a5c005c060020d40a0020940a00202f4b002290
:102a6c001a7001f02bfa02b070bd2d4b00221a70b7
:102a7c002c4b1b7b082b18d12a4b03f11402191d6c
:102a8c0003c982e803001b79012b11d0022b2fd034
:102a9c00254b187800230093244a082100f58070f8
:102aac0000f07afb01f00afadde701f007fadae749
:102abc001d4b93f87c3973b91a4b00225a759a75d1
:102acc00da751a76174b184a5178597691789976a7
:102adc00d278da76dce7134b02225a75124ad2f816
:102aec007829117999755179d97592791a76e9e71e
:102afc000d4b93f87c393bb90a4bff221a75022215
:102b0c005a7500229a75c3e7074b012283f87d2979
:102b1c000021074801f036fcbae700bfe80a0020a4
:102b2c00e70a0020800a002010000020940a0020f0
:042b3c00dd3a00007e
:020000040000fa
:102b40002de9f04784b04ff084431c6d14f0007ff2
:102b50001cbf4ff000721a6514f0010f62d04ff0e5
:102b6000844301221a655a6d22f001025a65d3f896
:102b7000a43013f07f0f55d04ff08443d3f8a45006
:102b8000c5f305252b014a4ad268d718d15811f050
:102b9000804fd15805eb8500464e56f8200014bff3
:102ba00021f06041c1f38a410160d2587b6813f47f
:102bb000001f02d112f0005f71d105eb85033d4a81
:102bc00002eb83031b6900221a707e683a4b0fcb1d
:102bd0000df1100c0ce90f00c6f30346664416f81d
:102be00010ac344e4fea850808eb050906eb89095d
:102bf000524607f10801d9f8040001f03ffbd9f86b
:102c0000083083f800a0d9f80c300bb17a681a802c
:102c10004ff08443c3f8a850284b1b6813b1274ad0
:102c20005068984714f4007f20d04ff084434ff44d
:102c300000721a655a6d22f400725a65d3f8d820d2
:102c4000d3f8e03013f0010f0ad012f0010f07d0d3
:102c50004ff08442d2f8e03023f00103c2f8e030b4
:102c6000164b9b6913b1154ad069984714f4006f4d
:102c700012d04ff084424ff400631365d2f8c43091
:102c8000c3f30423d2f8c420c2f30442934203d214
:102c90000133dbb29a42fbd104b0bde8f08705eb0b
:102ca0008503044a02eb83031b6901221a708ce737
:102cb000300a0020580a0020a0430000a00a00208b
:020000040000fa
:102cc000494b00221a7403f50063484ada621a4637
:102cd000536813f0200ffbd1454b464a9a621a46bf
:102ce000536813f0100ffbd1414b434a1a631a4645
:102cf000536813f0400ffbd13d4b4222c3f88420b0
:102d00001a46d2f8843013f0400ffad03b4b002221
:102d10009a6377225a631a46d36b13f0040ffbd1e0
:102d2000364b022283f830201a46d36b13f0020f81
:102d3000fbd1324a136c03f00303032bfad1304b5f
:102d400001225a711a46d37813f0010ffbd0284b99
:102d50002c4a1a621a46536813f0040ffbd1244b15
:102d6000294a5a621a46536813f0080ffbd1204bc8
:102d70004222c3f8a4201a46d2f8a43013f0400f20
:102d8000fad01b4b4422c3f8ec201a46d2f8ec30a0
:102d900013f0400ffad0164b4422c3f8f0201a4625
:102da000d2f8f03013f0400ffad0114b4122c3f8a3
:102db00020211a46d2f8203113f0400ffad00c4be4
:102dc0004122c3f824211a46d2f8243113f0400fcf
:102dd000fad00b4b0d4a1a614cf2ff725a614ff454
:102de000c0721a62704700bf001400400401200046
:102df000001c0040060130000601020000100040e7
:102e0000000800400701010007010200fffffb006e
:020000040000fa
:102e1000e40900201c00000000000000000a00205f
:102e20003000000000000000800a002020000000a8
:102e300000000000100000208009000000000000d9
:102e4000e40a00200100000000000000e50a002064
:102e50000100000000000000e60a00200100000060
:102e600000000000e70a0020010000000000000050
:102e7000e80a00200100000000000000e90a00202c
:102e80000100000000000000d40a0020040000003f
:102e90000100000000000044a00a00202000000003
:102ea00000000000300a00202800000000000000a0
:102eb000580a00202800000000000000ea0a002054
:102ec0000100000000000000c00a00200c0000000b
:102ed00000000000cc0a00200800000000000000f4
:102ee000eb0a002001000000000000009009002013
:102ef0005400000000000000d80a00200400000078
:102f000000000000ec0a00200100000001000000a9
:102f100001000000dc0a00200400000000000000a6
:102f2000ed0a00200100000000000000ee0a002071
:102f30000100000000000000e00a00200400000082
:102f400000000000000000000000000022222222f9
:020000040000fa
:102f5000494b1a78002a40f08c80f0b583b002f01b
:102f6000ff03044601281bd0022846d0032858d06e
:102f700004286ad005283dd13f4e0223b3700021ba
:102f8000042001f0fdf805460121042001f0f8f8c5
:102f900005eb0020394da5fb00308008f06012e001
:102fa000354f0026be703146304601f0e9f805463f
:102fb0000121304601f0e4f805eb00202f4da5fb80
:102fc0000030800878602c4bdc7001241c700025d8
:102fd00083f826505d7006222946284601f020f924
:102fe0001423009340f2dc5396220321284600f07c
:102ff000b9fc2346184603b0f0bd1f4f0126be7032
:103000000021304601f0bcf805463146304601f05b
:10301000b7f805eb0020194da5fb00308008b8601b
:10302000d1e7154e0323b3700021022001f0a8f868
:1030300005460121022001f0a3f805eb00200f4d09
:10304000a5fb003080083061bde70b4e0423b37050
:103050000021032001f094f805460121032001f02e
:103060008ff805eb0020054da5fb0030800870614e
:10307000a9e7002318467047900900204fecc44e82
:020000040000fa
:103080002de9f84f8b46924698469df828709df89a
:103090002c609df830503d4bd3f800903c4c207094
:1030a0003c4800f0d5f86770a670e5700223a37263
:1030b0000023e372237363736371a371e37123725b
:1030c00084f82eb384f84fa6b8f1000f03d009f0ae
:1030d0000f03012b13d02e4b002283f870292c4aaa
:1030e0000d9bc2f874394ff00053c2f878391b7841
:1030f000112b2ad0264b002283f87c293de0c9f30e
:103100000219b9f1010fe6d184f8708901f058f97c
:103110000028fbd1204b1968d1f8fc33b3f15a3f9a
:1031200008d01e4b03eb8808002243f8042b4345cc
:10313000fbd1d4e70b461a4a01eb880853f8041b6d
:1031400042f8041f4345f9d1c9e74ff000535b78bb
:10315000822bcfd14ff000539b78132bcad14ff065
:103160000053db78842bc5d1094b012283f87c29dd
:103170004ff00053df711e725d72054b002283f821
:103180007d2900f0a1febde8f88f00bf044080005b
:1031900010000020000a0020d40a00206006002051
:0431a0005c060020a9
:020000040000fa
:1031a400f8b59df818c0bcf1010f01d90020f8bd95
:1031b4004ff08443d3f8c43013f4001f3fd14ff0d1
:1031c4008443d3f8c440c4f3044426011d4b9f69cf
:1031d400bd19b0f5006f26bf20f0604040f080407c
:1031e4008004b8510b46082928bf082318046860d6
:1031f4001cf0fd0f1ed111461a4605f1080001f01e
:103204003bf8114a13780133dbb213706a6842ea5f
:10321400036343f400036b60012000fa04f44ff0ed
:103224008443c3f8e040c3f8d0405a6d42f40072be
:103234005a65bce7bb5943f00053bb51e1e700209a
:0c324400b5e700bf300a0020ea0a0020b5
:020000040000fa
:1032500038b504463022002101f0c2f84ff0844313
:1032600001229a611a46936913f0010ffbd04ff0c7
:1032700084439a6942f002029a611949cc60a2b271
:1032800042f0004242f48032c3f8a02004f1100260
:103290008a6192b242f08072c3f8c02004f1200229
:1032a000ca6192b242f48032c3f8f02004f12802dd
:1032b0000a620c4d03cda062e16292b242f4003288
:1032c000c3f884209a6922f4804222f0010242f479
:1032d00080429a611a46936913f0010ffbd138bd01
:0832e000300a00203844000010
:020000040000fa
:1032e80008b51b4b98471b4b9847eff3108172b6f4
:1032f800194ad2f8883043f47003c2f88830bff313
:103308004f8fbff36f8f01b962b6144c20236360ef
:1033180000f0b8f8124b23f07f030f4a9360114b6b
:103328009847a36823f00103a3602346da6812f0e4
:10333800010ffbd1094b5a6842f004025a6001227e
:103348009a60094b9847094b984700f0dff8fee769
:10335800514400005144000000ed00e000600041cd
:1033680000200000f93c00005144000051440000d6
:020000040000fa
:1033780010b5012807d043b2cbb303282fd00420bf
:1033880000f0faff33e00c46052906d101f04af8af
:1033980030b1012000f0f0ff29e000f029fff5e747
:1033a800204600f0a7fe40b10021204600f0daffd9
:1033b800052c1cd100f010fe19e02046fff7c4fdd3
:1033c80048b100f0c5ff0c4b01221a70052c0ed134
:1033d80000f002fe0be0022000f0ceff07e001291a
:1033e80006d000f005ff0021084600f0bbff10bd25
:0c33f80000f0f2fdf7e700bfed0a002036
:020000040000fa
:1034040038b54ff0844301229a611a46936913f048
:10341400010ffbd04ff084439a6942f002029a6193
:10342400164ada612b22c3f8802001221a629a69b3
:1034340022f4804222f0010242f480429a611a4648
:10344400936913f0010ffbd14ff0844300249c6572
:103454000122da654ff000725a65094d2c606c60e8
:10346400ac6028222146074800f0b8ffec602c61cc
:103474006c61ac61ec612c626c6238bd00050200c9
:08348400300a0020580a002064
:020000040000fa
:10348c001e4b1f4a9342f0b438bf002103d203f8fd
:10349c00011b9342fbd11b4ad2e9000150ea010304
:1034ac004ff0000610d09468034602f10c076cb97b
:1034bc0021b1014403f8016b9942fbd13a46d2e9a0
:1034cc00000150ea0103eed1f0bc704759b101f193
:1034dc000c030c38801a1a443b461c1813f8015b79
:1034ec0025709342f9d111f0030318bf012303ebac
:1034fc00910107eb81073a46e1e700bf100000207d
:08350c0010000020102e000049
:020000040000fa
:1035140008b5002000f094fd00211b4800f072ff64
:1035240000f0e8fe00f036f800f050fe00f09afbe0
:1035340000f084fe154c164d17e0237803f0fd03cc
:10354400237000f0b3fb16e0237803f0fb03237031
:1035540000f08efd13e0237803f0fe03237000f0e7
:103564002ffa4ff00043c5f89c3000f02bfc237871
:1035740013f0020fe1d1237813f0040fe4d1237880
:1035840013f0010ff1d0e6e7a93f0000ee0a002096
:043594000080004172
:020000040000fa
:1035980070b584b01c4b0393012502950226019651
:1035a800002400940623224629461320fff764fdd1
:1035b8000094234622462146204600f0bdfb009495
:1035c800234622462146284600f0b6fb00942346af
:1035d80022462146304600f0affb0094234622469f
:1035e8002146032000f0a8fb0094234622462146ea
:1035f800042000f0a1fb009423462246052108463a
:0c36080000f09afb04b070bd79330000a4
:020000040000fa
:103614001a4b1b4a1a60042083f8440083f84500bf
:10362400012283f84620062183f84b1083f84d10bd
:10363400402183f84e1083f8531083f8562083f802
:10364400572083f85b0083f83300882083f83b001d
:103654000c48c3f8800083f8c41083f8c72083f8ab
:10366400c82083f8c92083f8d71083f8df1010220c
:1036740083f8b320112283f8b420704700800041fe
:08368400fc170008000cc380d4
:020000040000fa
:10368c0010b582b004460df106030df107020021be
:10369c00084600f073fa9df8073003f0c703bcb975
:1036ac008df807300df106030df1070200210846d5
:1036bc0000f0f2fc9df807209df8063013430cd067
:1036cc00012380220321002000f030fc02b010bd49
:1036dc0043f008038df80730e4e700238022032130
:0836ec00184600f023fcf1e791
:020000040000fa
:1036f40010b582b004460df106030df10702002156
:10370400084600f03ffa9df8073003f0c703bcb940
:103714008df807300df106030df10702002108466c
:1037240000f0befc9df807209df8063013430cd032
:10373400012380220321002000f0fcfb02b010bd15
:1037440043f020038df80730e4e7002380220321af
:08375400184600f0effbf1e75d
:020000040000fa
:10375c0010b582b004460df106030df107020021ed
:10376c00084600f00bfa9df8073003f0c703bcb90c
:10377c008df807300df106030df107020021084604
:10378c0000f08afc9df807209df8063013430cd0fe
:10379c00012380220321002000f0c8fb02b010bde1
:1037ac0043f010038df80730e4e700238022032157
:0837bc00184600f0bbfbf1e729
:020000040000fa
:1037c40010b582b004460df106030df10702002185
:1037d400084600f0d7f99df8073003f0f803bcb9a8
:1037e4008df807300df106030df10702002108469c
:1037f40000f056fc9df807209df8063013430cd0ca
:10380400012380220321002000f094fb02b010bdac
:1038140043f001038df80730e4e7002380220321fd
:08382400184600f087fbf1e7f4
:020000040000fa
:10382c0010b582b004460df106030df1070200211c
:10383c00084600f0a3f99df8073003f0f803bcb973
:10384c008df807300df106030df107020021084633
:10385c0000f022fc9df807209df8063013430cd095
:10386c00012380220321002000f060fb02b010bd78
:10387c0043f004038df80730e4e700238022032192
:08388c00184600f053fbf1e7c0
:020000040000fa
:1038940010b582b004460df106030df107020021b4
:1038a400084600f06ff99df8073003f0f803bcb93f
:1038b4008df807300df106030df1070200210846cb
:1038c40000f0eefb9df807209df8063013430cd062
:1038d400012380220321002000f02cfb02b010bd44
:1038e40043f002038df80730e4e70023802203212c
:0838f400184600f01ffbf1e78c
:020000040000fa
:1038fc0010b582b004460df106030df1070200214c
:10390c00084600f03bf9dcb19df8073043f040036a
:10391c008df807300df106030df107020021084662
:10392c0000f0bafb9df807209df8063013430cd02d
:10393c00012380220321002000f0f8fa02b010bd10
:10394c009df8073003f0bf03e2e700238022032138
:08395c00184600f0ebfaf1e758
:020000040000fa
:1039640010b51c46144b5a841c84bdf808209a8454
:10397400012283f82720d0b9104b4ff480725a618a
:10398400084600f0f3fa032000f0d2f800f0cafc75
:10399400204600f0d3fc00f0b9fc084b10229a61d9
:1039a40020229a614ff48062c3f8982010bd034b23
:1039b4004ff480729a61e3e790090020008000418f
:020000040000fa
:1039c40010b500f013fdc4b20020fff791fe462ca1
:1039d40007d9d22c18d8532c06d90120fff7bcfee6
:1039e40002e00120fff750fe00f006fdc4b2002003
:1039f400fff7e6fe462c0bd9d22c0dd8532c0ad94e
:103a04000120fff745ff06e00120fff771feebe719
:103a14000120fff7d5fe10bd0120fff705fffae7ef
:020000040000fa
:103a2400154b01221a801a46136b13f0010ffbd1b8
:103a34004ff080131b681a0902f07002d90001f4d8
:103a4400e061c3f382030a431a430b4ba3f84820f3
:103a54004ff4e0621a800322da721a7241f602020b
:103a64009a801a22da80072283f82e201a46136bd2
:0c3a7400002bfcd1704700bf001c004379
:020000040000fa
:103a8000154b01221a801a46136b13f0010ffbd15c
:103a90004ff080131b689a0c02f07002d90a01f4ef
:103aa000e061c3f302430a431a430b4ba3f84820d7
:103ab0004ff4e0621a800322da721a7241f60102b0
:103ac0009a801a22da80072283f82e201a46136b76
:0c3ad000002bfcd1704700bf0020004319
:020000040000fa
:103adc00124b93f87d3903b97047104b002283f8d1
:103aec007d29d3f8782901211170d3f87829022186
:103afc005170d3f8782903219170d3f878390422c6
:103b0c00da70bff34f8f0649ca6802f4e062054bc6
:103b1c001343cb60bff34f8f00bffde710000020b5
:083b2c0000ed00e00400fa05c1
:020000040000fa
:103b3400032824d8dfe800f00206101a104b802274
:103b44009a6170470e4b4ff400729a614ff4806291
:103b54009a6180225a617047094b4ff400729a614e
:103b64004ff480625a6180225a617047044b4ff4cb
:103b740000725a614ff480629a6180225a617047e0
:043b8400008000417c
:020000040000fa
:103b880098b110b4044610484079207011b10e481d
:103b98008079087012b10c49c979117013b10a4ab9
:103ba800127a1a705df8044b704711b10648807993
:103bb800087012b10449c97911701bb1024a127a0e
:0c3bc8001a707047704700bf100000200a
:020000040000fa
:103bd400f0b59df81440ecb94ff0844cdcf8a450d7
:103be400c5f305250c4cae007719bf0004eb070e96
:103bf400e051cef80420cef80810cef80c30069b25
:103c0400cef81030dcf8543043f00103ccf85430d3
:0c3c1400012000e00020f0bd580a002054
:020000040000fa
:103c20000f4ad36823f4e0631b041b0c43f0bf630b
:103c300043f40033d360bff35f8f62b6094be022d9
:103c400083f80b234ff40061196083f84e234ff47f
:103c50008041996083f86c234ff48052da6070479a
:083c600000ed00e000e100e0ce
:020000040000fa
:103c680010b50e4b00241c705c7083f8264083f856
:103c7800274022462146204600f0cefa2046fff78c
:103c880055ff074b10229a6120229a6100f048fbe9
:103c98002146044800f0c0fb10bd00bf9009002079
:083ca8000080004181220000b0
:020000040000fa
:103cb00008b50f4b1b6a13f4006f0d4b4ff48032a5
:103cc00014bfc3f89820c3f89420094b1b6a094a13
:103cd0001278c3f340339a4206d0054b1b6ac3f3f4
:103ce0004033044a137003b908bd00f033fafbe710
:083cf00000800041eb0a0020f6
:020000040000fa
:103cf80070b50d4d0d4c641ba4100026a64209d1c9
:103d08000b4d0c4cfef7a8fa641ba4100026a64223
:103d180005d170bd55f8043b98470136eee755f8d4
:103d2800043b98470136f2e76c2200006c22000041
:083d38006c2200007022000063
:020000040000fa
:103d400030b40e4c2468d4f8fc43b4f15a3f13d07d
:103d50000b4c94f8704984420ed9094c00f5ca7591
:103d600004f8251004eb800080f8512680f85236c4
:103d70009df8083080f8533630bc7047d40a0020d4
:043d8000100000200f
:020000040000fa
:103d84000f4b01221a801a46136913f0010ffbd15d
:103d94000b4b4ff401421a8000221a621a4613692f
:103da40013f0200ffbd1064b00225a621a46136906
:103db40013f0400ffbd1024b83225a81704700bf9e
:043dc4000024004097
:020000040000fa
:103dc80008b5fef7d7fc0e4b1b7823b10c4b1b78bc
:103dd800dbb2012b00d008bd00f024fb0028fad18b
:103de80000f0f2fa30b1072000f0c6fa044b0022c6
:103df8001a70f0e70021084600f0b4faf6e700bfb1
:043e0800ed0a00209f
:020000040000fa
:103e0c0010b5054c237833b9044b13b10448aff308
:103e1c0000800123237010bde40900200000000085
:103e2c000000000008b5034b1bb103490348aff376
:103e3c00008008bd00000000e80900200000000020
:020000040000fa
:103e4c004ff08443586c20f4605020f0180040046c
:103e5c00400c9b6913f0010f11d04ff08442936911
:103e6c0043f002039361936923f4804323f001032d
:103e7c0043f480439361936913f0010ffbd17047b6
:020000040000fa
:103e8c000c4b01221a601a46136913f0010ffbd177
:103e9c00084b10221a6001221a739a8333219972eb
:103eac000549002008605a721a461369002bfcd190
:0c3ebc00704700bf003c0040cc0a002012
:020000040000fa
:103ec80000b583b000221146084800f0c5f908483b
:103ed800084b01930023009300f10e03021d00f12b
:103ee8000c01fff773fe03b05df804fb013f00000f
:083ef800800a0020e50a002009
:020000040000fa
:103f000008b5fff7a3ff10f0070001d0072809d17b
:103f1000064b1b68b3f5a07f2cbf054b054b012258
:103f20001a7008bdfff7d0fffbe700bf800a002032
:083f3000e90a0020e70a002065
:020000040000fa
:103f380010b40c4c94f82e4384420fd903290dd8a1
:103f4800084c04eb80040c44a47b24ea020403b16b
:103f58001443044b03eb8000084484735df8044b5e
:083f6800704700bf10000020ab
:020000040000fa
:103f700028b90c4b04225a6108225a617047012863
:103f800009d00228074b4ff004020cbf5a619a6116
:103f900008229a617047034b04229a6108225a61f1
:083fa000704700bf00800041e2
:020000040000fa
:103fa80010f0010f04d00b4a137843f0020313708a
:103fb80010f0020f04d0074a137843f0040313707b
:103fc80010f0800f04d0034a137843f001031370f4
:083fd800704700bfee0a002053
:020000040000fa
:103fe00008b50a4b4ff480529a610021052000f079
:103ff000c7f800eb40104000054b186001231a463b
:1040000003210020fff798ff08bd00bf008000419a
:04401000dc0a0020a6
:020000040000fa
:104014000a4b01221a601a46136913f0010ffbd1ef
:10402400064b40f214721a6001221a731a77332273
:104034009a721a461369002bfcd17047003800406d
:020000040000fa
:1040440008b500f0b3f9fff7e3fafef737fe00f026
:10405400f5f9fff7e5fcfff711fdfff7d1f9fff7dd
:1040640013fffff7d5fffff78bfefff7d7fd08bd62
:020000040000fa
:1040740008b5094b1b681bb1013b074a136003b128
:1040840008bd012203211846fff754ff034b4ff4e8
:1040940080525a61f4e700bfdc0a0020008000412e
:020000040000fa
:1040a40010b410b104780848447111b10878064975
:1040b400887112b11178044ad17113b11a78024b84
:0c40c4001a725df8044b704710000020d9
:020000040000fa
:1040d00008b5084b5b7a63b1064a937a3321917233
:1040e00003f0ff002bb1044b1b6813b1024a516867
:0c40f000984708bd003c0040cc0a0020ae
:020000040000fa
:1040fc00094b5a7802f0ff034ab1074b1b7843b9be
:10410c00054bdb78dbb2834214bf00230123184636
:0c411c0070470023fbe700bf9009002063
:020000040000fa
:1041280010b504460846fff701fd064b83f8284002
:10413800002283f82720044b4ff48062c3f89420b0
:0c41480010bd00bf900900200080004165
:020000040000fa
:1041540008b5094b1878fef7f9fe38b1064b1b7801
:104164000133dbb2052b02d8034a137008bd024b9e
:0c41740001221a70fae700bfec0a0020dc
:020000040000fa
:10418000084b93f8703983420ad9032901d90020da
:104190007047044b03eb8000084490f850067047ca
:0841a000002070471000002010
:020000040000fa
:1041a80008b5074a908980b2064b58604cf2ff3137
:1041b80091811b6813b1034a9168984708bd00bff5
:0841c80000240040c00a0020a1
:020000040000fa
:1041d00008b5074b4ff480525a6100230122032196
:1041e0001846fff7a9fe034b00221a6008bd00bf66
:0841f00000800041dc0a002000
:020000040000fa
:1041f80008b5074b4ff480525a610023012203216e
:104208001846fff795fe034b00221a6008bd00bf51
:0842180000800041dc0a0020d7
:020000040000fa
:10422000064b93f82e33834206d9032904d8034b57
:1042300003eb800008448273704700bf1000002029
:020000040000fa
:1042400008b5064b4ff000629a6100f025f800f0c7
:104250003bf800f02df800f043f808bd0080004165
:020000040000fa
:1042600010b428b1044b43f8320003ebc203596089
:0c4270005df8044b704700bfa00a00205e
:020000040000fa
:10427c000a44914200f1ff3300d1704710b511f898
:0c428c00014b03f8014f9142f9d110bd25
:020000040000fa
:10429800044a138843f002031380136b002bfcd1ec
:0842a800704700bf001c004339
:020000040000fa
:1042b000044a137d43f002031375136b13f4006f6c
:0842c000fbd17047001c004314
:020000040000fa
:1042c800044a138843f002031380136b002bfcd1bc
:0842d800704700bf0020004305
:020000040000fa
:1042e000044a137d43f002031375136b13f4006f3c
:0842f000fbd1704700200043e0
:020000040000fa
:1042f800044a138843f002031380136913f0020f72
:08430800fbd1704700240040c6
:020000040000fa
:10431000044a136843f002031360136913f0020f99
:08432000fbd17047003c004096
:020000040000fa
:10432800044a136823f002031360136913f0020fa1
:08433800fbd17047003c00407e
:020000040000fa
:10434000044bdb7a13f0100f03bf024b18860120d9
:0843500000207047003c004012
:020000040000fa
:10435800034b01229a720022da721a735a73704759
:044368001000002021
:020000040000fa
:10436c00034b02229a72d872197300225a73704747
:04437c00100000200d
:020000040000fa
:10438000024b03229a725873704700bf100000203e
:020000040000fa
:1043900010b1024b9861d961704700bfa00a00209c
:020000040000fa
:1043a0000001020304050607080c10141820304011
:020000040000fa
:1043b000024b40f204521a80704700bf0040004197
:020000040000fa
:1043c000024bd86ac0f38000704700bf0040004134
:020000040000fa
:1043d000024b587880f00100704700bf9009002020
:020000040000fa
:1043e00002440346934200d1704703f8011bf9e7ea
:020000040000fa
:0c43f000014bb3f840007047001c004374
:020000040000fa
:0c43fc00014bb3f8400070470020004364
:020000040000fa
:0c440800014b186099607047c00a00204a
:020000040000fa
:0c441400014b988b704700bf003c00403b
:020000040000fa
:0c442000014b186059607047cc0a002066
:020000040000fa
:0c442c00014b1878704700bf9009002079
:020000040000fa
:0844380053015309130113099c
:020000040000fa
:024440007047c3
:020000040000fa
:02444200fee793
:020000040000fa
:02444400fee791
:020000040000fa
:02444600fee78f
:020000040000fa
:02444800fee78d
:020000040000fa
:02444a00fee78b
:020000040000fa
:02444c00fee789
:020000040000fa
:02444e00fee787
:020000040000fa
:024450007047b3
:020000040000fa
:0200000400807a
:044000003912003c35
:020000040000fa
:0200000400807a
:044004009100a82a55
:020000040000fa
:0200000400807a
:04400800ffffffffb8
:00000001FF
