:10000000F0FF0320C1050000630A0000650A00003C
:10001000690A00006B0A00006D0A00000000000081
:10002000000000000000000000000000610A000065
:10003000670A000000000000610A0000610A000079
:10004000610A0000610A0000610A0000610A000004
:10005000610A0000610A0000610A0000610A0000F4
:10006000610A0000610A0000610A00009D090000A9
:10007000610A0000610A0000610A0000610A0000D4
:10008000610A0000610A0000610A0000610A0000C4
:10009000610A0000610A0000610A0000610A0000B4
:1000A000610A0000610A0000610A0000610A0000A4
:1000B000610A0000610A0000610A0000610A000094
:1000C000610A0000610A0000610A0000610A000084
:1000D000610A0000610A0000610A0000610A000074
:1000E000610A0000610A000000000000000000003A
:1000F00000000000610A0000610A0000610A0000BF
:10010000610A0000610A0000610A0000610A000043
:10011000610A0000610A0000610A0000610A000033
:10012000610A0000610A0000610A0000610A000023
:10013000610A0000610A0000610A0000610A000013
:10014000610A0000610A0000610A0000610A000003
:10015000610A0000610A00000000000000000000C9
:10016000000000000000000000000000000000008F
:10017000000000000000000081020000610A000091
:10018000610A0000610A0000610A0000610A0000C3
:1001900000000000610A0000610A0000610A00001E
:1001A000610A0000610A0000610A0000610A0000A3
:1001B000610A0000610A0000610A0000610A000093
:1001C000610A0000610A0000610A0000610A000083
:1001D000610A0000610A0000610A0000610A000073
:1001E000610A0000610A0000610A0000610A000063
:1001F000610A0000610A0000610A0000610A000053
:10020000610A00000000000000000000610A000018
:10021000610A0000610A0000610A0000610A000032
:10022000610A0000610A0000610A0000610A000022
:10023000610A0000610A0000610A0000610A000012
:10024000610A0000610A0000610A0000610A000002
:10025000610A0000610A0000610A0000610A0000F2
:10026000F8B500BFF8BC08BC9E4670470D090000F9
:10027000F8B500BFF8BC08BC9E467047E90800000E
:100280002DE9F04784B04FF084431C6D14F0007FDB
:100290001CBF4FF000721A6514F0010F63D04FF0CD
:1002A000844301221A655A6D22F001025A65D3F87F
:1002B000A43013F07F0F56D04FF08443D3F8A450EE
:1002C000C5F305252B01854AD268D718D15811F0FE
:1002D000804FD15805EB8500814E56F8200014BFA1
:1002E00021F06041C1F38A410160D2587B6813F468
:1002F000001F03D112F0005F40F0E68005EB85039C
:10030000774A02EB83031B6900221A707E68754BE3
:100310000FCB0DF1100C0CE90F00C6F30346664439
:1003200016F810AC6E4E4FEA850808EB050906EB8F
:100330008909524607F10801D9F8040000F054FB7E
:10034000D9F8083083F800A0D9F80C300BB17A68DE
:100350001A804FF08443C3F8A850634B1B6813B155
:10036000614A5068984714F0100F67D04FF08443EB
:1003700010221A655A6D22F010025A65D3F8B43073
:1003800013F07F0F5AD04FF08443D3F8B450C5F325
:1003900005252B01514A1269D718D15811F0804F09
:1003A000D05805F1010101EB81014D4E56F8216055
:1003B00014BF20F06040C0F38A403060D2587B68A0
:1003C00013F4001F02D112F0005F74D105EB850316
:1003D000434A02EB83035B6A00221A707E68414B3A
:1003E0000FCB0DF1100C0CE90F00C6F30346664469
:1003F00016F8108C3A4E6B1C03EB830306EB830359
:10040000424607F10801586800F0EEFAAB005A19AD
:1004100006EB8202D26982F800802B4406EB830649
:10042000336A0BB17A681A804FF08443C3F8B8502E
:100430002D4B9B6813B12C4AD068984714F4007F69
:1004400020D04FF084434FF400721A655A6D22F4A5
:1004500000725A65D3F8D820D3F8E03013F0010FBA
:100460000AD012F0010F07D04FF08442D2F8E030EA
:1004700023F00103C2F8E0301B4B9B6913B11A4A09
:10048000D069984714F4006F12D04FF084424FF4B3
:1004900000631365D2F8C430C3F30423D2F8C42038
:1004A000C2F30442934203D20133DBB29A42FBD13E
:1004B00004B0BDE8F08705EB8503094A02EB83032E
:1004C0005B6A01221A7089E705EB8503044A02EB97
:1004D00083031B6901221A7018E700BF1000002077
:1004E00038000020300A0000600000202C4B002261
:1004F0001A7403F500632B4ADA621A46536813F044
:10050000200FFBD1284B01225A711A46D37813F0E1
:10051000010FFBD0254B264A1A621A46536813F086
:10052000040FFBD1214B234A5A621A46536813F039
:10053000080FFBD11D4B204A9A621A46536813F0EC
:10054000100FFBD1194B1B4A1A631A46536813F05C
:10055000400FFBD1154B4322C3F8A4201A46D2F812
:10056000A43013F0400FFAD0104B4422C3F8EC2013
:100570001A46D2F8EC3013F0400FFAD00B4B44225D
:10058000C3F8F0201A46D2F8F03013F0400FFAD03A
:10059000054B0A4A1A6144F2FF725A61704700BF64
:1005A000001400400401200000080040001C00402E
:1005B000060101000601020006013000FFFFFB00FA
:1005C00008B51B4B98471B4B9847EFF3108172B649
:1005D000194AD2F8883043F47003C2F88830BFF368
:1005E0004F8FBFF36F8F01B962B6144C2023636045
:1005F00000F072F8124B23F07F030F4A9360114B07
:100600009847A36823F00103A3602346DA6812F039
:10061000010FFBD1094B5A6842F004025A600122D3
:100620009A60094B9847094B984700F0EBF9FEE7B1
:100630006F0A00006F0A000000ED00E0006000415A
:10064000000000005D0800006F0A00006F0A000053
:1006500038B54FF0844301229A611A46936913F02A
:10066000010FFBD04FF084439A6942F002029A6175
:10067000164ADA612B22C3F8802001221A629A6995
:1006800022F4804222F0010242F480429A611A462A
:10069000936913F0010FFBD14FF0844300249C6554
:1006A0000122DA654FF000725A65094D2C606C60CA
:1006B000AC6028222146074800F0CAF9EC602C61A2
:1006C0006C61AC61EC612C626C6238BD00050200AB
:1006D00010000020380000201E4B1F4A9342F0B447
:1006E00038BF002103D203F8011B9342FBD11B4A00
:1006F000D2E9000150EA01034FF0000610D09468DF
:10070000034602F10C076CB921B1014403F8016BF7
:100710009942FBD13A46D2E9000150EA0103EED1F9
:10072000F0BC704759B101F10C030C38801A1A441F
:100730003B461C1813F8015B25709342F9D111F068
:10074000030318BF012303EB910107EB81073A462E
:10075000E1E700BF10000020100000200C0800009E
:100760004FF4005318684FF000531B78012B12D040
:10077000013018BF01204FF0005311221A7082225D
:100780005A7013229A708422DA7000221A710122A0
:100790005A719A7170474FF000535B78022BE7D182
:1007A0004FF000539B78032BE2D14FF00053DB78DE
:1007B000042BDDD10020DEE7134B05221A60022254
:1007C00083F84020012183F84210402283F843201F
:1007D00083F84B2083F84E2083F8532083F856107B
:1007E00083F8571083F83110882083F83B004FF0CE
:1007F0000040C3F8800083F8C42083F8D72083F832
:10080000DF1083F8BF207047008000418000002087
:100810001C0000000000000060000020200000001C
:100820000000000010000020280000000000000070
:100830003800002028000000000000009C0000207C
:100840000C00000000000000A800002004000000D0
:1008500000000000000000000000000070B50D4D19
:100860000D4C641BA4100026A64209D10B4D0C4C64
:10087000FFF7F6FC641BA4100026A64205D170BD4C
:1008800055F8043B98470136EEE755F8043B984786
:100890000136F2E76C0200006C0200006C020000FE
:1008A000700200000F4B01221A801A46136913F0E0
:1008B000010FFBD10B4B4FF401421A8000221A6248
:1008C0001A46136913F0200FFBD1064B00225A621F
:1008D0001A46136913F0400FFBD1024B83225A8151
:1008E000704700BF0024004010B5054C237833B991
:1008F000044B13B10448AFF300800123237010BDF3
:1009000080000020000000000000000008B5034B3C
:100910001BB103490348AFF3008008BD000000008D
:1009200084000020000000000D4AD36823F4E06337
:100930001B041B0C43F0BF6343F40033D360BFF3CD
:100940005F8F62B6074BE02283F80B234FF4006100
:10095000196083F84E234FF480429A60704700BFBD
:1009600000ED00E000E100E00B4B01221A601A46A6
:10097000136913F0010FFBD1074B4FF4C2621A60E9
:1009800001221A7302229A8333229A721A46136939
:10099000002BFCD1704700BF0038004008B5074A63
:1009A000908980B2064B58604CF2FF3191811B68F0
:1009B00013B1034A9168984708BD00BF0024004066
:1009C0009C00002008B500F03BF8FFF7F5FEFFF7AC
:1009D0008DFD00F02CF8FFF73BFEFFF763FFFFF7FC
:1009E000C3FFFFF7A1FF08BD0A44914200F1FF33A6
:1009F00000D1704710B511F8014B03F8014F914237
:100A0000F9D110BD08B50020FFF7DCFFFFF7A8FE05
:100A100000B9FEE700F001F8FBE74FF400531B6854
:100A200083F3088842F204031B6818477047704735
:100A30000001020304050607080C101418203040BA
:100A4000024B4FF482721A80704700BF0040004191
:100A500002440346934200D1704703F8011BF9E7B3
:100A6000FEE7FEE7FEE7FEE7FEE7FEE7FEE770478C
:10200000F0FF032099330000A5450000A74500001C
:10201000AB450000AD450000AF45000000000000EA
:10202000000000000000000000000000E344000089
:10203000A945000000000000E3440000E344000064
:10204000E3440000E3440000E3440000E3440000F4
:10205000E3440000E3440000E3440000E3440000E4
:10206000E3440000E3440000E34400008542000034
:10207000E3440000E3440000E3440000E3440000C4
:10208000E3440000E3440000E3440000E3440000B4
:10209000E3440000E3440000E3440000E3440000A4
:1020A000E3440000E3440000E3440000E344000094
:1020B000E3440000E3440000E3440000E344000084
:1020C000E3440000E3440000E3440000E344000074
:1020D000E3440000E3440000E3440000E344000064
:1020E000E3440000E34400000000000000000000A2
:1020F00000000000E3440000E3440000E34400006B
:10210000E3440000E3440000E3440000E344000033
:10211000E3440000E3440000E3440000E344000023
:10212000E3440000E3440000E3440000E344000013
:10213000E3440000E3440000E3440000E344000003
:10214000E3440000E3440000E3440000E3440000F3
:10215000E3440000E3440000000000000000000031
:10216000000000000000000000000000000000006F
:102170000000000000000000412B0000E3440000CC
:10218000E3440000E3440000E3440000E3440000B3
:1021900000000000E3440000E3440000E3440000CA
:1021A000E3440000E3440000E3440000E344000093
:1021B000E3440000E3440000E3440000E344000083
:1021C000E3440000E3440000E3440000E344000073
:1021D000E3440000E3440000E3440000E344000063
:1021E000E3440000E3440000E344000081410000B8
:1021F000AD410000E3440000E3440000E34400007C
:10220000E34400000000000000000000E344000080
:10221000E3440000E3440000E3440000E344000022
:10222000E3440000E3440000E3440000E344000012
:10223000E3440000E3440000E3440000E344000002
:10224000E3440000E3440000E3440000E3440000F2
:10225000E3440000E3440000E3440000E3440000E2
:10226000F8B500BFF8BC08BC9E4670475D3E000054
:10227000F8B500BFF8BC08BC9E467047393E000068
:1022800010B584B09B4B1B6AC3F3C0239A4A1376E4
:1022900092F82630DBB2102B00F23E82DFE813F01A
:1022A00011001C00340060007C009400AE00D600D9
:1022B000EF000A0130014A01660186019F01BA015F
:1022C000DA018D4A92F826300133DBB282F82630EB
:1022D0008A4B00221A60A4E0884A13680133136015
:1022E00041F60A62934200F2F081834B1B7E002B81
:1022F00000F08F80804AE623D36192F826300133C4
:10230000DBB282F8263084E07C4A13680133136024
:1023100041F60A62934200F2D881774BDA69013ABA
:10232000DA61DB69002B74D1734B1B7E23B9724BCE
:10233000012283F826206CE0142300934FF4FA6303
:1023400096220321012001F021FB6B4A92F82630EE
:102350000133DBB282F82630684B00221A6060E05D
:10236000664A13680133136040F20262934200F23E
:10237000AC81604B1B6A13F4006F4AD15F4B0022A3
:102380001A605D4A53680133D36192F826300133F5
:10239000DBB282F826303CE0584A13680133136000
:1023A000554BDA69013ADA61DB69002B31D1524BC6
:1023B0009B78002B00F05D814F4A92F82630013364
:1023C000DBB282F8263024E04C4A136801331360F4
:1023D00040F20262934200F27881474A127EC2B113
:1023E000454AD362454B002119604C23D36192F8D2
:1023F00026300133DBB282F826300AE03F4A136808
:10240000013313603C4AD2696AB13B4AD369013B4C
:10241000D36102F0AFF8384B5B8C0446984200F26F
:102420009D8104B010BD344A127E002AF1D1324A97
:102430001364324B0021196093680133D36192F821
:1024400026300133DBB282F82630E2E72B4A1368EC
:1024500001331360284BDA69013ADA61DB69002B3A
:10246000D7D1254B9B78DBB2012B00F00281224AA9
:1024700092F826300133DBB282F82630C9E71F4AD2
:1024800013680133136040F20262934200F21D812F
:10249000194A127E002ABCD0174A1363174B002139
:1024A00019604C23D36192F826300133DBB282F8F5
:1024B0002630AEE7114A1368013313600E4AD26921
:1024C00022B10D4AD369013BD361A2E70A4A127EC9
:1024D000002A9ED1084A5364084B00211960D36832
:1024E0000133D36192F826300133DBB282F8263013
:1024F0008FE700BF00800041900900202C0B0020D6
:102500009C4A1368013313609B4BDA69013ADA6124
:10251000DB69002B7FF47DAF974B9B78DBB2022BFE
:1025200000F0A780944A92F826300133DBB282F89B
:1025300026306EE78F4A13680133136040F202625F
:10254000934200F2C2808C4A127E002A3FF461AFAF
:10255000894A5363874B002119604C23D36192F859
:1025600026300133DBB282F8263052E7814A136805
:1025700001331360804AD26922B17F4AD369013B9B
:10258000D36146E77C4A127E002A7FF442AF7A4A42
:102590009364784B0021196013690133D36192F879
:1025A00026300133DBB282F8263032E7714A1368F5
:1025B00001331360704BDA69013ADA61DB69002B91
:1025C0007FF427AF6C4B9B78DBB2032B51D06A4A68
:1025D00092F826300133DBB282F8263019E7654ADB
:1025E00013680133136040F2026293426DD8624A6D
:1025F000127E002A3FF40DAF5F4A93635D4B0021CA
:1026000019604C23D36192F826300133DBB282F893
:102610002630FEE6574A136801331360564AD269E2
:1026200022B1554AD369013BD361F2E6524A127E88
:10263000002A7FF4EEAE504AD3644E4B002119605D
:1026400053690133D36192F826300133DBB282F84B
:102650002630DEE6474A136801331360464BDA69D9
:10266000013ADA61DB69B3FA83F35B09002B3FF4CB
:10267000D0AE0121002001F0C5FD01F0E9FE3E4B86
:1026800000221A7001225A70DB78DBB2934245D0E7
:10269000394BDB78DBB2022B45D0374BDB78DBB232
:1026A000032B46D0344BDB78DBB2042B47D0324BC4
:1026B000DB78DBB2052B48D0012001F033F9002292
:1026C0001146104601F01AFEABE60121084601F062
:1026D00099FD01F0BDFE284B00241C705C70234660
:1026E0000DF10F022146204601F088FA9DF80F30C7
:1026F00043F040038DF80F3023460DF10F022146C1
:10270000204601F027FD22462146204601F0F6FD35
:10271000012001F007F984E60023A7E7002108461D
:1027200001F0ECFD16E002220021084601F0E6FD72
:1027300010E003220021084601F0E0FD0AE0042237
:102740000021084601F0DAFD04E0052200210846D8
:1027500001F0D4FD002001F0E5F862E601F078FE1A
:10276000054B988C201A80B201F07EFE01F064FEC9
:1027700057E600BF2C0B00209009002070B582B0F6
:10278000AF4B1B78A3B9AF4B1B78002B40F06C818B
:10279000AD4B1B78002B40F06E81AC4B1B78002BAF
:1027A00000F06781A94B00221A7001F0E1FB60E1A3
:1027B000A34B00221A70A64B1B7B082B05D1A44CFF
:1027C000221D04F10C05002103E001F0D1FB50E1D2
:1027D000194612F8010B80EA0103DBB2AA42F7D1D5
:1027E00088421ED19A4B1B799A4A12789A421BD082
:1027F000984A1370964B03F11402191D03C982E81D
:1028000003005B79013B092B31D8DFE813F02A0084
:10281000480052005B0074008D00A500BD00100050
:10282000D50001F0A5FB24E101F0A2FB21E18A4BD8
:1028300093F8703973B1894A0023894EA2F24C652E
:1028400052F8040F316841F82300013395F87019EC
:102850008B42F5DB824B1B684FF05A32C3F8FC23E6
:1028600005E07D4BD3F80120794BC3F817207D4B51
:1028700004F11B00002113F8012B51408342FAD1CF
:10288000734AD176744B18780023009314320821D0
:1028900000F5A07000F0DEFC01F06AFBE9E06E4B91
:1028A000D3F805106A4AC2F8171000225A719A71BB
:1028B000DDE7674A684B53F8091FC2F816101B7909
:1028C0009376D4E7624B9B79634A92F82E239A421F
:1028D00009D90233604A02EB8303D3F806205C4B2C
:1028E000C3F81720C3E75A4B00225A7504229A7581
:1028F0000122DA75BBE7564B9B79574A92F84F266F
:102900009A4209D9CA33544A02EB8303D3F8072009
:102910004F4BC3F81720AAE74D4B00225A750522EA
:102920009A750122DA75A2E7494B9B794A4A92F8D7
:1029300070299A4208D903F5CA73474A52F82320EE
:10294000434BC3F8172092E7414B00225A750622E9
:102950009A750122DA758AE73D4B9B793E4A92F8D7
:102960004F269A4208D93A4AD2F817103A4A02EB4F
:102970008303C3F82F137AE7354B00225A750722D9
:102980009A750122DA7572E7314B9B79324A92F8D7
:1029900070299A4208D903F5CA732D4AD2F8171044
:1029A0002D4A42F8231062E7294B00225A7508226B
:1029B0009A750122DA755AE7274BD3F874692EB35A
:1029C000234B987928B1244B9B7A012B2ED0224B94
:1029D0005872214D0423AB720023EB722B731C49F8
:1029E0008B7A00934B7A0A7AC979B047AB7A032B7A
:1029F00003D90322AA7205226A73154A164B53F8AB
:102A0000091FC2F816101B79937630E7104A9179A6
:102A10005972032199720021D972197304215973D3
:102A2000D3F80930C2F81630917620E7084B03221C
:102A3000DA7500221A765A7601229A7617E700BFD5
:102A4000410B0020400B00203F0B00203E0B0020DC
:102A5000C00A00203C0B0020100000205C06002073
:102A60004C0B0020D40A00202F4B00221A7001F0DA
:102A70007FFA02B070BD2D4B00221A702C4B1B7BCD
:102A8000082B18D12A4B03F11402191D03C982E83F
:102A900003001B79012B11D0022B2FD0254B187866
:102AA00000230093244A082100F5807000F0D2FB37
:102AB00001F05EFADDE701F05BFADAE71D4B93F80F
:102AC0007C3973B91A4B00225A759A75DA751A76E1
:102AD000174B184A5178597691789976D278DA76E8
:102AE000DCE7134B02225A75124AD2F87829117981
:102AF00099755179D97592791A76E9E70D4B93F862
:102B00007C393BB90A4BFF221A7502225A75002202
:102B10009A75C3E7074B012283F87D2900210748F6
:102B200001F0E8FCBAE700BF400B00203F0B00209B
:102B3000C00A002010000020D40A0020013B000041
:102B40002DE9F04784B04FF084431C6D14F0007FF2
:102B50001CBF4FF000721A6514F0010F62D04FF0E5
:102B6000844301221A655A6D22F001025A65D3F896
:102B7000A43013F07F0F55D04FF08443D3F8A45006
:102B8000C5F305252B014A4AD268D718D15811F050
:102B9000804FD15805EB8500464E56F8200014BFF3
:102BA00021F06041C1F38A410160D2587B6813F47F
:102BB000001F02D112F0005F71D105EB85033D4A81
:102BC00002EB83031B6900221A707E683A4B0FCB1D
:102BD0000DF1100C0CE90F00C6F30346664416F81D
:102BE00010AC344E4FEA850808EB050906EB89095D
:102BF000524607F10801D9F8040001F0BBFBD9F8EF
:102C0000083083F800A0D9F80C300BB17A681A802C
:102C10004FF08443C3F8A850284B1B6813B1274AD0
:102C20005068984714F4007F20D04FF084434FF44D
:102C300000721A655A6D22F400725A65D3F8D820D2
:102C4000D3F8E03013F0010F0AD012F0010F07D0D3
:102C50004FF08442D2F8E03023F00103C2F8E030B4
:102C6000164B9B6913B1154AD069984714F4006F4D
:102C700012D04FF084424FF400631365D2F8C43091
:102C8000C3F30423D2F8C420C2F30442934203D214
:102C90000133DBB29A42FBD104B0BDE8F08705EB0B
:102CA0008503044A02EB83031B6901221A708CE737
:102CB000700A0020980A002004450000E00A002065
:102CC000494B00221A7403F50063484ADA621A4637
:102CD000536813F0200FFBD1454B464A9A621A46BF
:102CE000536813F0100FFBD1414B434A1A631A4645
:102CF000536813F0400FFBD13D4B4222C3F88420B0
:102D00001A46D2F8843013F0400FFAD03B4B002221
:102D10009A6377225A631A46D36B13F0040FFBD1E0
:102D2000364B022283F830201A46D36B13F0020F81
:102D3000FBD1324A136C03F00303032BFAD1304B5F
:102D400001225A711A46D37813F0010FFBD0284B99
:102D50002C4A1A621A46536813F0040FFBD1244B15
:102D6000294A5A621A46536813F0080FFBD1204BC8
:102D70004222C3F8A4201A46D2F8A43013F0400F20
:102D8000FAD01B4B4422C3F8EC201A46D2F8EC30A0
:102D900013F0400FFAD0164B4422C3F8F0201A4625
:102DA000D2F8F03013F0400FFAD0114B4122C3F8A3
:102DB00020211A46D2F8203113F0400FFAD00C4BE4
:102DC0004122C3F824211A46D2F8243113F0400FCF
:102DD000FAD00B4B0D4A1A614CF2FF725A614FF454
:102DE000C0721A62704700BF001400400401200046
:102DF000001C0040060130000601020000100040E7
:102E0000000800400701010007010200FFFFFB006E
:102E1000494B1A78002A40F08C80F0B583B002F05C
:102E2000FF03044601281BD0022846D0032858D0AF
:102E300004286AD005283DD13F4E0223B3700021FB
:102E4000042001F00BFA05460121042001F006FAE6
:102E500005EB0020394DA5FB00308008F06012E042
:102E6000354F0026BE703146304601F0F7F9054671
:102E70000121304601F0F2F905EB00202F4DA5FBB2
:102E80000030800878602C4BDC7001241C70002519
:102E900083F826505D7006222946284601F02EFA56
:102EA0001423009340F2DC5396220321284600F0BD
:102EB0006DFD2346184603B0F0BD1F4F0126BE70BE
:102EC0000021304601F0CAF905463146304601F08E
:102ED000C5F905EB0020194DA5FB00308008B8604E
:102EE000D1E7154E0323B3700021022001F0B6F99B
:102EF00005460121022001F0B1F905EB00200F4D3C
:102F0000A5FB003080083061BDE70B4E0423B37091
:102F10000021032001F0A2F905460121032001F060
:102F20009DF905EB0020054DA5FB00308008706180
:102F3000A9E7002318467047900900204FECC44EC3
:102F40002DE9F84F8B46924698469DF828709DF8DB
:102F50002C609DF830503D4BD3F800903C4C2070D5
:102F60003C4800F0CDF96770A670E5700223A372AB
:102F70000023E372237363736371A371E37123729C
:102F800084F82EB384F84FA6B8F1000F03D009F0EF
:102F90000F03012B13D02E4B002283F870292C4AEB
:102FA0000D9BC2F874394FF00053C2F878391B7882
:102FB000112B2AD0264B002283F87C293DE0C9F34F
:102FC0000219B9F1010FE6D184F8708901F0AAFA6B
:102FD0000028FBD1204B1968D1F8FC33B3F15A3FDC
:102FE00008D01E4B03EB8808002243F8042B43450E
:102FF000FBD1D4E70B461A4A01EB880853F8041BAF
:1030000042F8041F4345F9D1C9E74FF000535B78FC
:10301000822BCFD14FF000539B78132BCAD14FF0A6
:103020000053DB78842BC5D1094B012283F87C291E
:103030004FF00053DF711E725D72054B002283F862
:103040007D2900F095FFBDE8F88F00BF04408000A7
:1030500010000020400A00204C0B002060060020D9
:103060005C060020000B00201C0000000000000097
:10307000400A00203000000000000000C00A0020CC
:103080002000000000000000100000208009000067
:10309000000000003C0B00200600000000000000C3
:1030A0004C0B002004000000010000000000004460
:1030B000E00A00202000000000000000700A00204C
:1030C0005000000000000000420B00200100000042
:1030D00000000000340A00200C0000000000000086
:1030E0001C0B0020100000000000000090090020D0
:1030F00054000000000000002C0B00200400000021
:1031000000000000300B0020040000000000000060
:10311000430B00200500000000000000500B0020C1
:103120000400000001000000F6FFFFFF480B002034
:103130000100000000000000340B0020040000002B
:1031400000000000E4090020500000000000000022
:10315000380B002004000000000000000000000008
:103160000000000010B501F0EDF9C4B2002000F03D
:10317000D5FA462C0CD9D22C2BD8204600F0DAFEFA
:103180002F4B1870532809D9012000F0FBFA05E0F5
:103190002B4B00221A70012000F08CFA284B1A7871
:1031A0000121002001F0AAF801F0D2F9C4B20020F8
:1031B00000F01CFB462C13D9D22C33D8204600F04B
:1031C000B9FE204B1870532810D9012000F076FB6F
:1031D0000CE01B4B00221A70012000F09FFADDE783
:1031E000184B00221A70012000F000FB154C2278C9
:1031F0000221002001F082F82378114A12789342CC
:1032000038BF1346104A1268511D994202DB053A35
:103210009A4206DD0C4A1360092B0ADC0B4B002294
:103220001A7010BD074B00221A70012000F012FB2B
:10323000DCE7074A82FB03239B10044A1370F0E784
:10324000470B0020450B0020500B0020440B0020B2
:1032500067666666F8B59DF818C0BCF1010F01D924
:103260000020F8BD4FF08443D3F8C43013F4001F9E
:103270003FD14FF08443D3F8C440C4F30444260143
:103280001D4B9F69BD19B0F5006F26BF20F060404F
:1032900040F080408004B8510B46082928BF08231D
:1032A000180468601CF0FD0F1ED111461A4605F186
:1032B000080001F05FF8114A13780133DBB2137094
:1032C0006A6842EA036343F400036B60012000FA7A
:1032D00004F44FF08443C3F8E040C3F8D0405A6D83
:1032E00042F400725A65BCE7BB5943F00053BB512E
:1032F000E1E70020B5E700BF700A0020420B002084
:1033000038B504463022002101F0D8F84FF084434C
:1033100001229A611A46936913F0010FFBD04FF016
:1033200084439A6942F002029A611949CC60A2B2C0
:1033300042F0004242F48032C3F8A02004F11002AF
:103340008A6192B242F08072C3F8C02004F1200278
:10335000CA6192B242F48032C3F8F02004F128022C
:103360000A620C4D03CDA062E16292B242F40032D7
:10337000C3F884209A6922F4804222F0010242F4C8
:1033800080429A611A46936913F0010FFBD138BD50
:10339000700A00209845000008B51B4B98471B4B4E
:1033A0009847EFF3108172B6194AD2F8883043F487
:1033B0007003C2F88830BFF34F8FBFF36F8F01B92E
:1033C00062B6144C2023636000F064FC124B23F0BF
:1033D0007F030F4A9360114B9847A36823F00103C2
:1033E000A3602346DA6812F0010FFBD1094B5A683B
:1033F00042F004025A6001229A60094B9847094B37
:10340000984700F09BF8FEE7B1450000B145000089
:1034100000ED00E00060004100200000A53A00003F
:10342000B1450000B145000010B5012807D043B2F6
:10343000CBB303282FD0042001F054F833E00C461E
:10344000052906D101F0A2F830B1012001F04AF8B7
:1034500029E000F03FFFF5E7204600F0BDFE40B157
:103460000021204601F016F8052C1CD100F028FEA2
:1034700019E02046FFF7CCFC48B101F001F80C4BF5
:1034800001221A70052C0ED100F01AFE0BE002206A
:1034900001F028F807E0012906D000F01BFF002109
:1034A000084600F0F7FF10BD00F00AFEF7E700BF86
:1034B000430B002038B54FF0844301229A611A462D
:1034C000936913F0010FFBD04FF084439A6942F0E7
:1034D00002029A61164ADA612B22C3F88020012287
:1034E0001A629A6922F4804222F0010242F4804278
:1034F0009A611A46936913F0010FFBD14FF0844390
:1035000000249C650122DA654FF000725A65094D6E
:103510002C606C60AC6028222146074800F0CEFF8A
:10352000EC602C616C61AC61EC612C626C6238BD4A
:1035300000050200700A0020980A002008B500204B
:1035400000F0D8FD00211B4801F008F800F050FF02
:1035500000F036F800F0AAFE00F0C2FB00F04AFCD2
:10356000154C164E4FF0004515E0237803F0FD038F
:10357000237001F01EF814E0237803F0FB0323709E
:1035800000F0D0FD11E0237803F0FE032370FFF775
:10359000E9FDC6F89C5000F00BFC237813F0020FF5
:1035A000E3D1237813F0040FE6D1237813F0010F51
:1035B000F1D0E8E789400000480B0020008000417E
:1035C00070B584B01C4B0393012502950226019629
:1035D000002400940623224629461320FFF7B0FC5E
:1035E0000094234622462146204600F09DFB00948D
:1035F000234622462146284600F096FB00942346A7
:1036000022462146304600F08FFB00942346224696
:103610002146032000F088FB0094234622462146E1
:10362000042000F081FB0094234622460521084631
:1036300000F07AFB04B070BD293400001A4B1B4A1D
:103640001A60042083F8440083F84500012283F8BF
:103650004620062183F84B1083F84D10402183F853
:103660004E1083F8531083F8562083F8572083F8C0
:103670005B0083F83300882083F83B000C48C3F8D4
:10368000800083F8C41083F8C72083F8C82083F82B
:10369000C92083F8D71083F8DF10102283F8B320F5
:1036A000112283F8B420704700800041FC17000805
:1036B000000CC38010B582B004460DF106030DF175
:1036C00007020021084600F099FA9DF8073003F040
:1036D000C703BCB98DF807300DF106030DF10702E1
:1036E0000021084600F036FD9DF807209DF80630C1
:1036F00013430CD0012380220321002000F070FC32
:1037000002B010BD43F008038DF80730E4E7002352
:1037100080220321184600F063FCF1E710B582B067
:1037200004460DF106030DF107020021084600F0E2
:1037300065FA9DF8073003F0C703BCB98DF8073070
:103740000DF106030DF107020021084600F002FD0D
:103750009DF807209DF8063013430CD001238022EA
:103760000321002000F03CFC02B010BD43F0200318
:103770008DF80730E4E7002380220321184600F08B
:103780002FFCF1E710B582B004460DF106030DF1F0
:1037900007020021084600F031FA9DF8073003F0D7
:1037A000C703BCB98DF807300DF106030DF1070210
:1037B0000021084600F0CEFC9DF807209DF8063059
:1037C00013430CD0012380220321002000F008FCC9
:1037D00002B010BD43F010038DF80730E4E700237A
:1037E00080220321184600F0FBFBF1E710B582B000
:1037F00004460DF106030DF107020021084600F012
:10380000FDF99DF8073003F0F803BCB98DF80730D7
:103810000DF106030DF107020021084600F09AFCA5
:103820009DF807209DF8063013430CD00123802219
:103830000321002000F0D4FB02B010BD43F00103CF
:103840008DF80730E4E7002380220321184600F0BA
:10385000C7FBF1E710B582B004460DF106030DF188
:1038600007020021084600F0C9F99DF8073003F06F
:10387000F803BCB98DF807300DF106030DF107020E
:103880000021084600F066FC9DF807209DF80630F0
:1038900013430CD0012380220321002000F0A0FB61
:1038A00002B010BD43F004038DF80730E4E70023B5
:1038B00080220321184600F093FBF1E710B582B097
:1038C00004460DF106030DF107020021084600F041
:1038D00095F99DF8073003F0F803BCB98DF807306F
:1038E0000DF106030DF107020021084600F032FC3D
:1038F0009DF807209DF8063013430CD00123802249
:103900000321002000F06CFB02B010BD43F0020365
:103910008DF80730E4E7002380220321184600F0E9
:103920005FFBF1E710B582B004460DF106030DF11F
:1039300007020021084600F061F9DCB19DF807306C
:1039400043F040038DF807300DF106030DF1070237
:103950000021084600F0FEFB9DF807209DF8063088
:1039600013430CD0012380220321002000F038FBF8
:1039700002B010BD9DF8073003F0BF03E2E700235B
:1039800080220321184600F02BFBF1E710B51C46FE
:10399000144B5A841C84BDF808209A84012283F8B1
:1039A0002720D0B9104B4FF480725A61084600F0BE
:1039B00033FB032000F0D0F800F04AFD204600F071
:1039C00053FD00F039FD084B10229A6120229A61C4
:1039D0004FF48062C3F8982010BD034B4FF48072FF
:1039E0009A61E3E79009002000800041154B012215
:1039F0001A801A46136B13F0010FFBD14FF080139E
:103A00001B681A0902F07002D90001F4E061C3F3E7
:103A100082030A431A430B4BA3F848204FF4E06299
:103A20001A800322DA721A7241F602029A801A226E
:103A3000DA80072283F82E201A46136B002BFCD164
:103A4000704700BF001C0043154B01221A801A4624
:103A5000136B13F0010FFBD14FF080131B689A0C0E
:103A600002F07002D90A01F4E061C3F302430A4391
:103A70001A430B4BA3F848204FF4E0621A8003224C
:103A8000DA721A7241F601029A801A22DA8007224B
:103A900083F82E201A46136B002BFCD1704700BF11
:103AA000002000430E4A38B5002313600D4A0E4C27
:103AB00013600E4A0E4D13600E4A13600E4A1360D7
:103AC0000E4A536213610123936000F073FD00F00E
:103AD00071FDAC4200D338BD54F8043B9847F8E779
:103AE000380B0020F00900206C220000EC090020B7
:103AF00070220000E4090020E8090020F4090020F9
:103B0000124B93F87D3903B97047104B002283F8AC
:103B10007D29D3F8782901211170D3F87829022161
:103B20005170D3F8782903219170D3F878390422A1
:103B3000DA70BFF34F8F0649CA6802F4E062054BA2
:103B40001343CB60BFF34F8F00BFFDE71000002091
:103B500000ED00E00400FA05032824D8DFE800F0B7
:103B60000206101A104B80229A6170470E4B4FF4D8
:103B700000729A614FF480629A6180225A617047A4
:103B8000094B4FF400729A614FF480625A618022AF
:103B90005A617047044B4FF400725A614FF48062CF
:103BA0009A6180225A61704700800041114AD368AF
:103BB00023F4E0631B041B0C43F0BF6343F40033A6
:103BC000D360BFF35F8F62B60B4BE02283F80B2309
:103BD0004FF40061196083F84E234FF480409860E1
:103BE00083F86B23D96083F86C234FF48052DA603A
:103BF000704700BF00ED00E000E100E098B110B4B4
:103C0000044610484079207011B10E488079087040
:103C100012B10C49C979117013B10A4A127A1A709B
:103C20005DF8044B704711B106488079087012B1F5
:103C30000449C97911701BB1024A127A1A7070478F
:103C4000704700BF10000020F0B59DF81440ECB99B
:103C50004FF0844CDCF8A450C5F305250C4CAE00A5
:103C60007719BF0004EB070EE051CEF80420CEF820
:103C70000810CEF80C30069BCEF81030DCF854302B
:103C800043F00103CCF85430012000E00020F0BDE7
:103C9000980A002070B50E4B0E4A0021934208D3BB
:103CA0000D480E4D4FF6FF76016829B943681BB9E0
:103CB00070BD03F8011BF1E783684268334000F1EF
:103CC0000C0455F823302046984704EB8000EBE7BE
:103CD000100000201000002064300000A844000004
:103CE00010B50E4B00241C705C7083F8264083F8DE
:103CF000274022462146204600F000FB2046FFF7E1
:103D00002BFF074B10229A6120229A6100F0A0FB42
:103D10002146044800F034FC10BD00BF900900208B
:103D2000008000418122000030B40E4C2468D4F899
:103D3000FC43B4F15A3F13D00B4C94F870498442C1
:103D40000ED9094C00F5CA7504F8251004EB800063
:103D500080F8512680F852369DF8083080F85336A6
:103D600030BC70474C0B0020100000200F4B01228C
:103D70001A801A46136913F0010FFBD10B4B4FF455
:103D800001421A8000221A621A46136913F0200FAA
:103D9000FBD1064B00225A621A46136913F0400FFA
:103DA000FBD1024B83225A81704700BF00240040A0
:103DB00008B5FEF7E3FC0E4B1B7823B10C4B1B78C8
:103DC000DBB2012B00D008BD00F0E0FB0028FAD1E7
:103DD00000F0B0FB30B1072000F084FB044B002260
:103DE0001A70F0E70021084600F054FBF6E700BF28
:103DF000430B002010B50D4B4FF000629A61002478
:103E00000B4B1C7000F0C4FA00F0DAFA00F0CCFAA8
:103E100000F0E2FA00F004FB2146064800F0A4FBA3
:103E2000012000F099FA00F0EFFA10BD0080004187
:103E3000440B00205140000010B5054C227832B9E7
:103E4000044B13B10448AFF300800123237010BD6D
:103E5000000B0020000000000000000008B5034B2C
:103E60001BB103490348AFF3008008BD0000000008
:103E7000040B0020000000004FF08443586C20F435
:103E8000605020F018004004400C9B6913F0010FB3
:103E900011D04FF08442936943F002039361936918
:103EA00023F4804323F0010343F480439361936937
:103EB00013F0010FFBD170470D4B01221A601A4617
:103EC000136913F0010FFBD1094B40F214621A6021
:103ED00001221A73082119773321997205490020AC
:103EE00008605A721A461369002BFCD1704700BF54
:103EF000003800401C0B00200C4B01221A601A46AF
:103F0000136913F0010FFBD1084B10221A60012234
:103F10001A739A83332199720549002008605A72F6
:103F20001A461369002BFCD1704700BF003C0040CB
:103F3000240B0020472815D9BA2815D84D280AD9AE
:103F400002230A4911F81320824205D80133162BA7
:103F5000F8D1002070470123044A02EB430313F811
:103F6000010C704700207047642070473042000009
:103F700000B583B000221146084800F0DFF9084878
:103F8000084B01930023009300F10E03021D00F182
:103F90000C01FFF759FE03B05DF804FBA93F0000D8
:103FA000C00A00203D0B002008B5FFF765FF10F0A8
:103FB000070001D0072809D1064B1B68B3F5A07F85
:103FC0002CBF054B054B01221A7008BDFFF7D0FF2F
:103FD000FBE700BFC00A0020410B00203F0B002080
:103FE00010B40C4C94F82E4384420FD903290DD8F9
:103FF000084C04EB80040C44A47B24EA020403B1C3
:104000001443044B03EB8000084484735DF8044BB5
:10401000704700BF1000002028B90C4B04225A61E1
:1040200008225A617047012809D00228074B4FF037
:1040300004020CBF5A619A6108229A617047034BCF
:1040400004229A6108225A61704700BF0080004133
:104050000A4B1B780A4A12789A420A4A4FF00061CA
:1040600094BF916151610133DBB2092B02D8034A3D
:1040700013707047014B00221A707047460B0020E6
:10408000440B00200080004110F0010F04D00B4AC7
:10409000137843F00203137010F0020F04D0074AA4
:1040A000137843F00403137010F0800F04D0034A18
:1040B000137843F001031370704700BF480B0020D2
:1040C00008B50A4B4FF480529A610021052000F098
:1040D000C5F800EB40104000054B186001231A465C
:1040E00003210020FFF77CFF08BD00BF00800041D6
:1040F000300B002008B500F00DFAFFF79FFAFEF72D
:10410000DFFD00F01AF9FFF771FCFFF79DFCFFF7E8
:10411000D1F9FFF7F1FEFFF729FEFFF7CDFEFFF71C
:1041200045FD08BD08B5094B1B681BB1013B074A9B
:10413000136003B108BD012203211846FFF750FFA9
:10414000034B4FF480525A61F4E700BF300B00205C
:104150000080004110B410B104780848447111B1D6
:1041600008780649887112B11178044AD17113B1E7
:104170001A78024B1A725DF8044B70471000002049
:1041800008B5084B5B7A63B1064A937A3321917282
:1041900003F0FF002BB1044B1B6813B1024A5168B6
:1041A000984708BD003800401C0B002008B5084B9C
:1041B0005B7A63B1064A937A3321917203F0FF0070
:1041C0002BB1044B1B6813B1024A5168984708BDD4
:1041D000003C0040240B0020094B5A7802F0FF03FA
:1041E0004AB1074B1B7843B9054BDB78DBB28342FE
:1041F00014BF00230123184670470023FBE700BFCC
:104200009009002010B504460846FFF7A5FC064BB0
:1042100083F82840002283F82720044B4FF4806263
:10422000C3F8942010BD00BF900900200080004119
:1042300047004E0055005C0064006B06720C79125A
:104240007F18861E8C24922A97309C36A13CA64269
:10425000AA48AE4EB254B55AB860BB64084B93F846
:10426000703983420AD9032901D900207047044BD1
:1042700003EB8000084490F8500670470020704718
:104280001000002008B5074A908980B2064B58609C
:104290004CF2FF3191811B6813B1034A9168984732
:1042A00008BD00BF00240040340A002008B5074BB9
:1042B0004FF480525A610023012203211846FFF770
:1042C0008FFE034B00221A6008BD00BF0080004132
:1042D000300B002008B5074B4FF480525A61002381
:1042E000012203211846FFF77BFE034B00221A60D0
:1042F00008BD00BF00800041300B0020064B93F842
:104300002E33834206D9032904D8034B03EB8000E4
:1043100008448273704700BF1000002010B50023CE
:10432000934206D113F0030018BF012000EB930065
:1043300010BDC45CCC540133F2E7704710B428B10F
:10434000044B43F8320003EBC20359605DF8044BA1
:10435000704700BFE00A0020054BDB7A13F0080F1E
:1043600003BF034B83F82F0001200020704700BFDC
:10437000003800405AB110B40A44431E11F8014BF2
:1043800003F8014F9142F9D15DF8044B7047704733
:10439000044A138843F002031380136B002BFCD1F3
:1043A000704700BF001C0043044A137D43F0020322
:1043B0001375136B13F4006FFBD17047001C00439F
:1043C000044A138843F002031380136B002BFCD1C3
:1043D000704700BF00200043044A137D43F00203EE
:1043E0001375136B13F4006FFBD17047002000436B
:1043F000044A138843F002031380136913F0020F79
:10440000FBD1704700240040044A136843F00203C4
:104410001360136913F0020FFBD17047003800409E
:10442000044A136823F002031360136913F0020FA8
:10443000FBD1704700380040044A136843F0020380
:104440001360136913F0020FFBD17047003C00406A
:10445000044A136823F002031360136913F0020F78
:10446000FBD17047003C0040044BDB7A13F0100F87
:1044700003BF024B1886012000207047003C00401B
:10448000034B01229A720022DA721A735A73704730
:1044900010000020034B02229A72D8721973002276
:1044A0005A73704710000020D14400001D430000E3
:1044B000A1450000A1450000A145000032B1C9B2EC
:1044C0000244034603F8011B9342FBD1704700BF2F
:1044D0000A440023914201D10020704701F8013BBA
:1044E000F8E7FEE7024B03229A725873704700BF49
:1044F0001000002010B1024B9861D961704700BFD5
:10450000E00A00200001020304050607080C10144D
:1045100018203040024B40F204521A80704700BF0E
:1045200000400041024BD86AC0F38000704700BFD2
:1045300000400041024B587880F00100704700BFF6
:1045400090090020014BB3F840007047001C004365
:10455000014BB3F84000704700200043014B186046
:1045600099607047340A0020014B18605960704709
:104570001C0B0020014B988B704700BF003C004093
:10458000014B186059607047240B0020014B1878CC
:10459000704700BF9009002053015309130113090C
:1045A00000207047FEE7FEE7FEE7FEE7FEE7FEE7D6
:0645B000704770477047E0
:0200000400807A
:0C4000003912003C9100A82AFFFFFFFFCE
:00000001FF
