:020000040000fa
:10000000f0ff0320950b0000fb130000fd13000020
:10001000011400000314000005140000000000009b
:10002000000000000000000000000000f9130000c4
:10003000ff13000000000000f9130000f913000096
:10004000f9130000f9130000f9130000f913000080
:10005000f9130000f9130000f9130000f913000070
:10006000f9130000f9130000f91300002512000035
:10007000f9130000f9130000f9130000f913000050
:10008000f9130000f9130000f9130000f913000040
:10009000f9130000f9130000f9130000f913000030
:1000a000f9130000f9130000f9130000f913000020
:1000b000f9130000f9130000f9130000f913000010
:1000c000f9130000f9130000f9130000f913000000
:1000d000f9130000f9130000f9130000f9130000f0
:1000e000f9130000f91300000000000000000000f8
:1000f00000000000f9130000f9130000f9130000dc
:10010000f9130000f9130000f9130000f9130000bf
:10011000f9130000f9130000f9130000f9130000af
:10012000f9130000f9130000f9130000f91300009f
:10013000f9130000f9130000f9130000f91300008f
:10014000f9130000f9130000f9130000f91300007f
:10015000f9130000f9130000000000000000000087
:10016000000000000000000000000000000000008f
:10017000000000000000000039050000f913000035
:10018000f9130000f9130000f9130000f91300003f
:1001900000000000f9130000f9130000f91300003b
:1001a000f9130000f9130000f9130000f91300001f
:1001b000f9130000f9130000f9130000f91300000f
:1001c000f9130000f9130000f9130000f9130000ff
:1001d000f9130000f9130000f9130000f9130000ef
:1001e000f9130000f9130000f9130000f9130000df
:1001f000f9130000f9130000f9130000f9130000cf
:10020000f91300000000000000000000f9130000d6
:10021000f9130000f9130000f9130000f9130000ae
:10022000f9130000f9130000f9130000f91300009e
:10023000f9130000f9130000f9130000f91300008e
:10024000f9130000f9130000f9130000f91300007e
:10025000f9130000f9130000f9130000f91300006e
:020000040000fa
:10026000f8b500bff8bc08bc9e4670475d100000a2
:10027000f8b500bff8bc08bc9e46704739100000b6
:020000040000fa
:10028000f0b583b0a54b1b78002b00f03b81a34b4e
:1002900000221a70a24b1b7b082b05d1a04c221dfb
:1002a00004f10c05002103e000f026ff2de11946c2
:1002b00012f8010b80ea0103dbb2aa42f7d18842af
:1002c00019d1974b1b79974a12789a4216d0954ac2
:1002d0001370934b03f11402191d03c982e8030044
:1002e0005b79013b092b12d8dfe803f00b29333c83
:1002f000546c839ab1ca00f0fffe06e100f0fcfee8
:1003000003e1894bd3f80120854bc3f81720874bb5
:1003100004f11b00002113f8012b51408342fad154
:100320007f4ad176804b187800230093143208213d
:1003300000f5007000f08efb00f0defee5e07a4b89
:10034000d3f80510764ac2f8171000225a719a7134
:10035000dde7734a744b53f8091fc2f816101b7976
:100360009376d4e76e4b9b796f4a927e9a4209d975
:1003700002336d4a02eb8303d3f80620684bc3f8bf
:100380001720c4e7664b00225a7504229a75012291
:10039000da75bce7624b9b79634ad27f9a4209d9ee
:1003a0000633614a02eb8303d3f803205c4bc3f8a6
:1003b0001720ace75a4b00225a7505229a75012284
:1003c000da75a4e7564b9b79574a92f850209a4227
:1003d00007d90833544a52f82320514bc3f8172049
:1003e00095e74f4b00225a7506229a750122da755d
:1003f0008de74b4b9b794c4ad27f9a4208d9484aa9
:10040000d2f81710484a02eb8303c3f81b107ee7ab
:10041000434b00225a7507229a750122da7576e756
:100420003f4b9b79404a92f850209a4207d90833b3
:100430003b4ad2f817103c4a42f8231067e7384b82
:1004400000225a7508229a750122da755fe7364d47
:1004500005f11c0305f14c07354ec5f1ff2505f5e7
:100460007f05e435ea18316853f8040f8850bb4221
:10047000f8d12f4b1b684ff05a32c3f8fc2346e7e4
:10048000294b5e6d2eb3264b987928b1264b9b7a6b
:10049000012b2ed0244b5872234d0423ab72002322
:1004a000eb722b731e498b7a00934b7a0a7ac979c7
:1004b000b047ab7a032b03d90322aa7205226a73d1
:1004c000174a194b53f8091fc2f816101b79937677
:1004d0001de7134a91795972032199720021d9724b
:1004e000197304215973d3f80930c2f81630917684
:1004f0000de70b4b0322da7500221a765a76012299
:100500009a7604e70b4b1b780bb903b0f0bd094b8f
:1005100000221a7000f0f0fdf7e700bf470100204d
:10052000dc0000204401002000000020f00000203a
:080530005800002046010020e4
:020000040000fa
:100538002de9f04784b04ff084431c6d14f0007f20
:100548001cbf4ff000721a6514f0010f62d04ff013
:10055800844301221a655a6d22f001025a65d3f8c4
:10056800a43013f07f0f55d04ff08443d3f8a45034
:10057800c5f305252b014a4ad268d718d15811f07e
:10058800804fd15805eb8500464e56f8200014bf21
:1005980021f06041c1f38a410160d2587b6813f4ad
:1005a800001f02d112f0005f71d105eb85033d4aaf
:1005b80002eb83031b6900221a707e683a4b0fcb4b
:1005c8000df1100c0ce90f00c6f30346664416f84b
:1005d80010ac344e4fea850808eb050906eb89098b
:1005e800524607f10801d9f8040000f05dfed9f879
:1005f800083083f800a0d9f80c300bb17a681a805b
:100608004ff08443c3f8a850284b1b6813b1274afe
:100618005068984714f4007f20d04ff084434ff47b
:1006280000721a655a6d22f400725a65d3f8d82000
:10063800d3f8e03013f0010f0ad012f0010f07d001
:100648004ff08442d2f8e03023f00103c2f8e030e2
:10065800164b9b6913b1154ad069984714f4006f7b
:1006680012d04ff084424ff400631365d2f8c430bf
:10067800c3f30423d2f8c420c2f30442934203d242
:100688000133dbb29a42fbd104b0bde8f08705eb39
:100698008503044a02eb83031b6901221a708ce765
:1006a8008c000020b40000206c130000fc00002027
:020000040000fa
:1006b800494b00221a7403f50063484ada621a4665
:1006c800536813f0200ffbd1454b464a9a621a46ed
:1006d800536813f0100ffbd1414b434a1a631a4673
:1006e800536813f0400ffbd13d4b4222c3f88420de
:1006f8001a46d2f8843013f0400ffad03b4b002250
:100708009a6377225a631a46d36b13f0040ffbd10e
:10071800364b022283f830201a46d36b13f0020faf
:10072800fbd1324a136c03f00303032bfad1304b8d
:1007380001225a711a46d37813f0010ffbd0284bc7
:100748002c4a1a621a46536813f0040ffbd1244b43
:10075800294a5a621a46536813f0080ffbd1204bf6
:100768004222c3f8a4201a46d2f8a43013f0400f4e
:10077800fad01b4b4422c3f8ec201a46d2f8ec30ce
:1007880013f0400ffad0164b4422c3f8f0201a4653
:10079800d2f8f03013f0400ffad0114b4122c3f8d1
:1007a80020211a46d2f8203113f0400ffad00c4b12
:1007b8004122c3f824211a46d2f8243113f0400ffd
:1007c800fad00b4b0d4a1a614cf2ff725a614ff482
:1007d800c0721a62704700bf001400400401200074
:1007e800001c004006013000060102000010004015
:1007f800000800400701010007010200fffffb009d
:020000040000fa
:100808001c0100201c000000000000006000002007
:100818002c00000000000000dc0000202000000088
:100828000000000000000020580000000000000048
:1008380044010020010000000000000045010020e4
:100848000100000000000000460100200100000037
:100858000000000047010020010000000000000027
:1008680058000020040000000100000000000044bf
:10087800fc00002020000000000000008c00002088
:100888002800000000000000b4000020280000003c
:1008980000000000480100200100000000000000e6
:1008a800380100200c000000000000004901002071
:1008b80001000000000000004a01002001000000c3
:1008c800000000005c0000200400000000000000a0
:1008d8000000000000000000222222222222222200
:020000040000fa
:1008e80010b582b02c4800f059f800240094234633
:1008f80022462821204600f035fb00942346224654
:100908003221012000f02efb009423462246c82104
:10091800022000f027fb009423462246642103208e
:1009280000f020fb0094234664221146042000f0c6
:1009380019fb0094234622462146052000f012fbad
:100948000094234622462146062000f00bfb009423
:10095800234622462146072000f004fb0094234644
:1009680022462146082000f0fdfa00942346022280
:100978002146092000f0f6fa009423462246214633
:100988000a2000f0effa00942346224621460b2065
:0c09980000f0e8fa02b010bdbd13000032
:020000040000fa
:1009a40070b50646254b1d68254c04232370254845
:1009b40000f0a4f8012262700023a370e270022107
:1009c400a172e372237363736371a371e37123727e
:1009d4000323a376e27705f00f03934208d0184b64
:1009e400002283f85020164b5e6500f083fb70bd37
:1009f400c5f302159542f2d10c2284f8502000f080
:100a0400c3fc0028fbd1104b1868d0f8fc33b3f1b9
:100a14005a3f09d00a4a02f120035032002143f818
:100a2400041b9342fbd1dee7031f084a2c3053f822
:100a3400041f42f8041f8342f9d1d4e70440800024
:100a44000000002060000020580000201c0000204e
:020000040000fa
:100a5400f8b59df818c0bcf1010f01d90020f8bd0c
:100a64004ff08443d3f8c43013f4001f3fd14ff048
:100a74008443d3f8c440c4f3044426011d4b9f6946
:100a8400bd19b0f5006f26bf20f0604040f08040f3
:100a94008004b8510b46082928bf0823180468604d
:100aa4001cf0fd0f1ed111461a4605f1080000f096
:100ab400fdfb114a13780133dbb213706a6842ea12
:100ac400036343f400036b60012000fa04f44ff065
:100ad4008443c3f8e040c3f8d0405a6d42f4007236
:100ae4005a65bce7bb5943f00053bb51e1e7002012
:0c0af400b5e700bf8c0000204801002086
:020000040000fa
:100b000010b504462c22002100f050fc4ff0844325
:100b100001229a611a46936913f0010ffbd04ff03e
:100b200084439a6942f002029a611849cc60a2b2e9
:100b300042f0004242f48032c3f8a02004f11002d7
:100b40008a6192b242f08072c3f8c02004f12002a0
:100b5000ca6192b242f48032c3f8f02004f1280254
:100b60000a620b49a16292b242f48032c3f8842037
:100b70009a6922f4804222f0010242f480429a6192
:100b80001a46936913f0010ffbd110bd8c000020b1
:040b90001102040a40
:020000040000fa
:100b940008b51b4b98471b4b9847eff3108172b66f
:100ba400194ad2f8883043f47003c2f88830bff38e
:100bb4004f8fbff36f8f01b962b6144c202363606b
:100bc40000f072f8124b23f07f030f4a9360114b2d
:100bd4009847a36823f00103a3602346da6812f060
:100be400010ffbd1094b5a6842f004025a600122fa
:100bf4009a60094b9847094b984700f099f8fee72b
:100c0400071400000714000000ed00e0006000413c
:100c140000000000250f0000071400000714000066
:020000040000fa
:100c240038b54ff0844301229a611a46936913f050
:100c3400010ffbd04ff084439a6942f002029a619b
:100c4400164ada612b22c3f8802001221a629a69bb
:100c540022f4804222f0010242f480429a611a4650
:100c6400936913f0010ffbd14ff0844300249c657a
:100c74000122da654ff000725a65094d2c606c60f0
:100c8400ac6028222146074800f08efbec602c6102
:100c94006c61ac61ec612c626c6238bd00050200d1
:080ca4008c000020b4000020c8
:020000040000fa
:100cac001e4b1f4a9342f0b438bf002103d203f805
:100cbc00011b9342fbd11b4ad2e9000150ea01030c
:100ccc004ff0000610d09468034602f10c076cb983
:100cdc0021b1014403f8016b9942fbd13a46d2e9a8
:100cec00000150ea0103eed1f0bc704759b101f19b
:100cfc000c030c38801a1a443b461c1813f8015b81
:100d0c0025709342f9d111f0030318bf012303ebb3
:100d1c00910107eb81073a46e1e700bf0000002094
:080d2c0000000020080800008f
:020000040000fa
:100d340008b5002000f048fa00211a4800f050fbe2
:100d440000f0f2fafff7cefd00f026fb00f07cfa8b
:100d540000f08efa144c154d00f048fb237813f084
:100d6400020f0fd1237813f0040f13d1237813f05b
:100d7400010ff1d023f0010323704ff00043c5f8b5
:100d84009c30e9e723f00203237000f03dfb00f000
:100d940039fbe7e723f00403237000f034fb00f091
:100da40027f9e3e7311100004a01002000800041e7
:020000040000fa
:100db400174b184a1a60042083f8440083f845004e
:100dc400012283f84620062183f84b1083f84d1046
:100dd400402183f84e1083f8531083f8562083f88b
:100de400572083f85b0083f83300882083f83b00a6
:100df4000948c3f8800083f8c41083f8c82083f836
:100e0400c92083f8d710112283f8b420704700bf9b
:0c0e140000800041fc170008000cc380a7
:020000040000fa
:100e2000154b01221a801a46136b13f0010ffbd1e8
:100e30004ff080131b681a0902f07002d90001f408
:100e4000e061c3f382030a431a430b4ba3f8482023
:100e50004ff4e0621a800322da721a7241f602023b
:100e60009a801222da80072283f82e201a46136b0a
:0c0e7000002bfcd1704700bf001c0043a9
:020000040000fa
:100e7c00154b01221a801a46136b13f0010ffbd18c
:100e8c004ff080131b689a0c02f07002d90a01f41f
:100e9c00e061c3f302430a431a430b4ba3f8482007
:100eac004ff4e0621a800322da721a7241f60102e0
:100ebc009a801222da80072283f82e201a46136bae
:0c0ecc00002bfcd1704700bf0020004349
:020000040000fa
:100ed800f0b59df81440ecb94ff0844cdcf8a45000
:100ee800c5f305250c4cae007719bf0004eb070ebf
:100ef800e051cef80420cef80810cef80c30069b4e
:100f0800cef81030dcf8543043f00103ccf85430fc
:0c0f1800012000e00020f0bdb40000202b
:020000040000fa
:100f240070b50d4d0d4c641ba4100026a64209d1ca
:100f34000b4d0c4cfff792f9641ba4100026a6423b
:100f440005d170bd55f8043b98470136eee755f8d6
:100f5400043b98470136f2e76c0200006c02000083
:080f64006c02000070020000a5
:020000040000fa
:100f6c0030b40e4c2468d4f8fc43b4f15a3f13d07f
:100f7c000b4c94f8504084420ed9094c00f10805f2
:100f8c0004f8251004eb800080f8212080f8223032
:100f9c009df8083080f8233030bc70475800002092
:040fac000000002021
:020000040000fa
:100fb0000f4b01221a801a46136913f0010ffbd15f
:100fc0000b4b4ff401421a8000221a621a46136931
:100fd00013f0200ffbd1064b00225a621a46136908
:100fe00013f0400ffbd1024b83225a81704700bfa0
:040ff0000024004099
:020000040000fa
:100ff40008b50e4b1b6a0e4a1278c3f340339a426b
:101004000ad00a4b1b6ac3f34033094a137043b135
:10101400064b4ff000625a6100f0d6f900f0daf99d
:1010240008bd024b4ff000629a61f5e70080004171
:04103400490100204e
:020000040000fa
:1010380010b5054c237833b9044b13b10448aff30a
:1010480000800123237010bd1c0100200000000057
:101058000000000008b5034b1bb103490348aff378
:10106800008008bd000000002001002000000000f2
:020000040000fa
:101078004ff08443586c20f4605020f0180040046e
:10108800400c9b6913f0010f11d04ff08442936913
:1010980043f002039361936923f4804323f001032f
:1010a80043f480439361936913f0010ffbd17047b8
:020000040000fa
:1010b8000d4ad36823f4e0631b041b0c43f0bf63a1
:1010c80043f40033d360bff35f8f62b6074be0226f
:1010d80083f80b234ff40061196083f84e234ff413
:1010e80080429a60704700bf00ed00e000e100e038
:020000040000fa
:1010f80000b583b000221146084800f0c7f8084838
:10110800084b01930023009300f10e03021d00f128
:101118000c01fff7ddfe03b05df804fbfd110000d4
:08112800dc000020450100205d
:020000040000fa
:1011300010f0010f04d00b4a137843f00203137030
:1011400010f0020f04d0074a137843f00403137021
:1011500010f0800f04d0034a137843f0010313709a
:08116000704700bf4a010020a6
:020000040000fa
:101168000b4b01221a601a46136913f0010ffbd1c9
:10117800074b10221a6001221a734ff4fa729a83ed
:1011880033229a721a461369002bfcd1704700bfac
:04119800003c0040d7
:020000040000fa
:10119c000a4b01221a601a46136913f0010ffbd196
:1011ac00064b40f214721a6001221a731a7733221a
:1011bc009a721a461369002bfcd170470038004014
:020000040000fa
:1011cc0008b500f0d5f8fff7effdfff76ffa00f068
:1011dc00f6f8fff71ffefff74bfefff71dfdfff7bd
:1011ec00bdfffff7dffefff7d3fffff75fff08bd83
:020000040000fa
:1011fc0008b5fff73bff10f0070005d0072803d018
:10120c00034b01221a7002e0024b01221a7008bd36
:08121c004601002047010020fb
:020000040000fa
:1012240008b5074a908980b2064b58604cf2ff31ea
:1012340091811b6813b1034a9168984708bd00bfa8
:081244000024004038010020e5
:020000040000fa
:10124c0008b5084b80229a6110225a6120225a61fb
:10125c004ff400729a614ff480629a6100f06cf85e
:08126c0008bd00bf0080004135
:020000040000fa
:1012740008b5064b4ff000629a6100f025f800f0c3
:101284003bf800f02df800f043f808bd0080004161
:020000040000fa
:1012940010b428b1044b43f8320003ebc203596085
:0c12a4005df8044b704700bffc00002008
:020000040000fa
:1012b0000a44914200f1ff3300d1704710b511f894
:0c12c000014b03f8014f9142f9d110bd21
:020000040000fa
:1012cc00044a138843f002031380136b002bfcd1e8
:0812dc00704700bf001c004335
:020000040000fa
:1012e400044a137d43f002031375136b13f4006f68
:0812f400fbd17047001c004310
:020000040000fa
:1012fc00044a138843f002031380136b002bfcd1b8
:08130c00704700bf0020004300
:020000040000fa
:10131400044a137d43f002031375136b13f4006f37
:08132400fbd1704700200043db
:020000040000fa
:10132c00044a138843f002031380136913f0020f6d
:08133c00fbd1704700240040c2
:020000040000fa
:10134400044a136823f002031360136913f0020fb5
:08135400fbd17047003c004092
:020000040000fa
:10135c00024b03229a725873704700bf00000020a2
:020000040000fa
:10136c000001020304050607080c10141820304075
:020000040000fa
:10137c00024b40f204521a80704700bf00400041fb
:020000040000fa
:10138c00024bd86ac0f38000704700bf0040004198
:020000040000fa
:10139c00024b4ff480525a61704700bf00800041ed
:020000040000fa
:1013ac0002440346934200d1704703f8011bf9e74e
:020000040000fa
:0e13bc0000b9704708b50420fff7caff08bd4e
:020000040000fa
:0213ca0070476a
:020000040000fa
:0c13cc00014bb3f840007047001c0043c8
:020000040000fa
:0c13d800014bb3f84000704700200043b8
:020000040000fa
:0c13e400014b1860996070473801002030
:020000040000fa
:0813f00008b5fef745ff08bd3a
:020000040000fa
:0213f800fee70e
:020000040000fa
:0213fa00fee70c
:020000040000fa
:0213fc00fee70a
:020000040000fa
:0213fe00fee708
:020000040000fa
:02140000fee705
:020000040000fa
:02140200fee703
:020000040000fa
:02140400fee701
:020000040000fa
:0214060070472d
:020000040000fa
:0214080070472b
:020000040000fa
:02140a00704729
:020000040000fa
:02140c00704727
:020000040000fa
:0200000400807a
:044000003912003c35
:020000040000fa
:0200000400807a
:044004009100a82a55
:020000040000fa
:0200000400807a
:04400800ffffffffb8
:00000001FF
